{
  "_format": "hh-sol-artifact-1",
  "contractName": "InvestRight",
  "sourceName": "contracts/InvestRight.sol",
  "abi": [
    {
      "inputs": [
        {
          "internalType": "address",
          "name": "pythAddress",
          "type": "address"
        }
      ],
      "stateMutability": "nonpayable",
      "type": "constructor"
    },
    {
      "anonymous": false,
      "inputs": [
        {
          "indexed": true,
          "internalType": "uint256",
          "name": "predictionId",
          "type": "uint256"
        },
        {
          "indexed": true,
          "internalType": "address",
          "name": "owner",
          "type": "address"
        },
        {
          "indexed": false,
          "internalType": "string",
          "name": "coin",
          "type": "string"
        },
        {
          "indexed": false,
          "internalType": "uint256",
          "name": "stakeAmount",
          "type": "uint256"
        }
      ],
      "name": "PredictionCreated",
      "type": "event"
    },
    {
      "anonymous": false,
      "inputs": [
        {
          "indexed": true,
          "internalType": "uint256",
          "name": "predictionId",
          "type": "uint256"
        },
        {
          "indexed": false,
          "internalType": "bool",
          "name": "predictionCorrect",
          "type": "bool"
        },
        {
          "indexed": false,
          "internalType": "uint256",
          "name": "totalReward",
          "type": "uint256"
        }
      ],
      "name": "RewardDistributed",
      "type": "event"
    },
    {
      "anonymous": false,
      "inputs": [
        {
          "indexed": true,
          "internalType": "uint256",
          "name": "predictionId",
          "type": "uint256"
        },
        {
          "indexed": true,
          "internalType": "address",
          "name": "staker",
          "type": "address"
        },
        {
          "indexed": false,
          "internalType": "bool",
          "name": "isPositive",
          "type": "bool"
        },
        {
          "indexed": false,
          "internalType": "uint256",
          "name": "amount",
          "type": "uint256"
        }
      ],
      "name": "StakeAdded",
      "type": "event"
    },
    {
      "inputs": [
        {
          "internalType": "uint256",
          "name": "_id",
          "type": "uint256"
        },
        {
          "internalType": "bool",
          "name": "isPositive",
          "type": "bool"
        }
      ],
      "name": "addStake",
      "outputs": [],
      "stateMutability": "payable",
      "type": "function"
    },
    {
      "inputs": [
        {
          "internalType": "uint256",
          "name": "predictionId",
          "type": "uint256"
        },
        {
          "internalType": "string",
          "name": "_coin",
          "type": "string"
        },
        {
          "internalType": "string",
          "name": "_reasoning",
          "type": "string"
        },
        {
          "internalType": "uint256",
          "name": "_targetPrice",
          "type": "uint256"
        },
        {
          "internalType": "uint256",
          "name": "_viewAmount",
          "type": "uint256"
        },
        {
          "internalType": "uint256",
          "name": "_targetDate",
          "type": "uint256"
        },
        {
          "internalType": "bytes32",
          "name": "_pythPriceId",
          "type": "bytes32"
        }
      ],
      "name": "createPrediction",
      "outputs": [],
      "stateMutability": "payable",
      "type": "function"
    },
    {
      "inputs": [
        {
          "internalType": "bytes32",
          "name": "priceId",
          "type": "bytes32"
        }
      ],
      "name": "getCurrentPrice",
      "outputs": [
        {
          "internalType": "uint256",
          "name": "",
          "type": "uint256"
        }
      ],
      "stateMutability": "view",
      "type": "function"
    },
    {
      "inputs": [
        {
          "internalType": "uint256",
          "name": "_id",
          "type": "uint256"
        }
      ],
      "name": "getPredictions",
      "outputs": [
        {
          "components": [
            {
              "internalType": "address",
              "name": "owner",
              "type": "address"
            },
            {
              "internalType": "string",
              "name": "coin",
              "type": "string"
            },
            {
              "internalType": "string",
              "name": "reasoning",
              "type": "string"
            },
            {
              "internalType": "uint256",
              "name": "currentPrice",
              "type": "uint256"
            },
            {
              "internalType": "uint256",
              "name": "targetPrice",
              "type": "uint256"
            },
            {
              "internalType": "uint256",
              "name": "stakeAmount",
              "type": "uint256"
            },
            {
              "internalType": "uint256",
              "name": "viewAmount",
              "type": "uint256"
            },
            {
              "internalType": "uint256",
              "name": "targetDate",
              "type": "uint256"
            },
            {
              "internalType": "uint256",
              "name": "totalPositiveStake",
              "type": "uint256"
            },
            {
              "internalType": "uint256",
              "name": "totalNegativeStake",
              "type": "uint256"
            },
            {
              "internalType": "uint256",
              "name": "totalFeesCollected",
              "type": "uint256"
            },
            {
              "internalType": "bytes32",
              "name": "pythPriceId",
              "type": "bytes32"
            },
            {
              "internalType": "bool",
              "name": "isDistributed",
              "type": "bool"
            },
            {
              "internalType": "address[]",
              "name": "positiveStakers",
              "type": "address[]"
            },
            {
              "internalType": "address[]",
              "name": "negativeStakers",
              "type": "address[]"
            }
          ],
          "internalType": "struct InvestRight.Prediction",
          "name": "",
          "type": "tuple"
        }
      ],
      "stateMutability": "view",
      "type": "function"
    },
    {
      "inputs": [
        {
          "internalType": "uint256",
          "name": "",
          "type": "uint256"
        },
        {
          "internalType": "address",
          "name": "",
          "type": "address"
        }
      ],
      "name": "negativeStakes",
      "outputs": [
        {
          "internalType": "uint256",
          "name": "",
          "type": "uint256"
        }
      ],
      "stateMutability": "view",
      "type": "function"
    },
    {
      "inputs": [
        {
          "internalType": "uint256",
          "name": "",
          "type": "uint256"
        },
        {
          "internalType": "address",
          "name": "",
          "type": "address"
        }
      ],
      "name": "positiveStakes",
      "outputs": [
        {
          "internalType": "uint256",
          "name": "",
          "type": "uint256"
        }
      ],
      "stateMutability": "view",
      "type": "function"
    },
    {
      "inputs": [
        {
          "internalType": "uint256",
          "name": "",
          "type": "uint256"
        }
      ],
      "name": "predictions",
      "outputs": [
        {
          "internalType": "address",
          "name": "owner",
          "type": "address"
        },
        {
          "internalType": "string",
          "name": "coin",
          "type": "string"
        },
        {
          "internalType": "string",
          "name": "reasoning",
          "type": "string"
        },
        {
          "internalType": "uint256",
          "name": "currentPrice",
          "type": "uint256"
        },
        {
          "internalType": "uint256",
          "name": "targetPrice",
          "type": "uint256"
        },
        {
          "internalType": "uint256",
          "name": "stakeAmount",
          "type": "uint256"
        },
        {
          "internalType": "uint256",
          "name": "viewAmount",
          "type": "uint256"
        },
        {
          "internalType": "uint256",
          "name": "targetDate",
          "type": "uint256"
        },
        {
          "internalType": "uint256",
          "name": "totalPositiveStake",
          "type": "uint256"
        },
        {
          "internalType": "uint256",
          "name": "totalNegativeStake",
          "type": "uint256"
        },
        {
          "internalType": "uint256",
          "name": "totalFeesCollected",
          "type": "uint256"
        },
        {
          "internalType": "bytes32",
          "name": "pythPriceId",
          "type": "bytes32"
        },
        {
          "internalType": "bool",
          "name": "isDistributed",
          "type": "bool"
        }
      ],
      "stateMutability": "view",
      "type": "function"
    },
    {
      "inputs": [],
      "name": "pyth",
      "outputs": [
        {
          "internalType": "contract IPyth",
          "name": "",
          "type": "address"
        }
      ],
      "stateMutability": "view",
      "type": "function"
    },
    {
      "inputs": [
        {
          "internalType": "uint256",
          "name": "_id",
          "type": "uint256"
        }
      ],
      "name": "rewardDistribution",
      "outputs": [],
      "stateMutability": "nonpayable",
      "type": "function"
    },
    {
      "inputs": [
        {
          "internalType": "uint256",
          "name": "_id",
          "type": "uint256"
        }
      ],
      "name": "viewerFees",
      "outputs": [
        {
          "components": [
            {
              "internalType": "address",
              "name": "owner",
              "type": "address"
            },
            {
              "internalType": "string",
              "name": "coin",
              "type": "string"
            },
            {
              "internalType": "string",
              "name": "reasoning",
              "type": "string"
            },
            {
              "internalType": "uint256",
              "name": "currentPrice",
              "type": "uint256"
            },
            {
              "internalType": "uint256",
              "name": "targetPrice",
              "type": "uint256"
            },
            {
              "internalType": "uint256",
              "name": "stakeAmount",
              "type": "uint256"
            },
            {
              "internalType": "uint256",
              "name": "viewAmount",
              "type": "uint256"
            },
            {
              "internalType": "uint256",
              "name": "targetDate",
              "type": "uint256"
            },
            {
              "internalType": "uint256",
              "name": "totalPositiveStake",
              "type": "uint256"
            },
            {
              "internalType": "uint256",
              "name": "totalNegativeStake",
              "type": "uint256"
            },
            {
              "internalType": "uint256",
              "name": "totalFeesCollected",
              "type": "uint256"
            },
            {
              "internalType": "bytes32",
              "name": "pythPriceId",
              "type": "bytes32"
            },
            {
              "internalType": "bool",
              "name": "isDistributed",
              "type": "bool"
            },
            {
              "internalType": "address[]",
              "name": "positiveStakers",
              "type": "address[]"
            },
            {
              "internalType": "address[]",
              "name": "negativeStakers",
              "type": "address[]"
            }
          ],
          "internalType": "struct InvestRight.Prediction",
          "name": "",
          "type": "tuple"
        }
      ],
      "stateMutability": "payable",
      "type": "function"
    }
  ],
  "bytecode": "0x60a03461007257601f61153038819003918201601f19168301916001600160401b038311848410176100775780849260209460405283398101031261007257516001600160a01b03811690819003610072576080526040516114a2908161008e823960805181818160df01526110ba0152f35b600080fd5b634e487b7160e01b600052604160045260246000fdfe6080604052600436101561001257600080fd5b60003560e01c80624fbbb014610b7157806308569d48146109d8578063161e444e146109b25780635e01bc18146109775780637d36f76614610675578063888189bc146104f3578063cc2509051461013d578063f1813d511461010e578063f98d06f0146100c95763fdeb11161461008957600080fd5b346100c45761009736610dbb565b90600052600160205260406000209060018060a01b03166000526020526020604060002054604051908152f35b600080fd5b346100c45760003660031901126100c4576040517f00000000000000000000000000000000000000000000000000000000000000006001600160a01b03168152602090f35b346100c45760203660031901126100c45761013961012d600435611332565b60405191829182610e1e565b0390f35b60e03660031901126100c45760243567ffffffffffffffff81116100c457610169903690600401610f28565b60443567ffffffffffffffff81116100c457610189903690600401610f28565b610194341515610f6f565b6004356000526000602052604060002090336bffffffffffffffffffffffff60a01b835416178255825167ffffffffffffffff811161041a576101da6001840154610c5d565b601f81116104a8575b50806020601f821160011461043b57600091610430575b508160011b916000199060031b1c19161760018301555b80519067ffffffffffffffff821161041a576102306002840154610c5d565b601f81116103cf575b50602090601f831160011461035d576102b593929160009183610352575b50508160011b916000199060031b1c19161760028201555b61027a60c435611099565b60038201556064356004820155608435600682015534600582015560a435600782015534600882015560c435600b820155600d339101610ff5565b6004356000526001602052604060002033600052602052346040600020556102e860405191604083526040830190610d7b565b3460208301527fc987cddf87b5c39d61521566a8bae8d24269d94ccae4faea08e291aec579f7de339280600435930390a36040516001815234602082015233907f3b1494da55e67aa8e3cf5eda3d5e9bf12524e8201897504247946faa23acd329604060043592a3005b015190508580610257565b90601f198316916002850160005260206000209260005b8181106103b757509160019391856102b59796941061039e575b505050811b01600282015561026f565b015160001960f88460031b161c1916905585808061038e565b92936020600181928786015181550195019301610374565b600284016000526020600020601f840160051c81019160208510610410575b601f0160051c01905b8181106104045750610239565b600081556001016103f7565b90915081906103ee565b634e487b7160e01b600052604160045260246000fd5b9050840151856101fa565b91506001840160005260206000206000925b601f1983168410610490576001935082601f19811610610477575b5050811b016001830155610211565b86015160001960f88460031b161c191690558580610468565b8681015182556020938401936001909201910161044d565b600184016000526020600020601f830160051c810191602084106104e9575b601f0160051c01905b8181106104dd57506101e3565b600081556001016104d0565b90915081906104c7565b6020806003193601126100c4576004359061050c61126a565b5060008281528082526040902080546001600160a01b0316338114610632576006820154918234036105e357600080938193600a83940161054e838254611035565b90555af13d156105de573d61056281610f0c565b906105706040519283610cb4565b81526000833d92013e5b1561058b5761013961012d83611332565b6084906040519062461bcd60e51b82526004820152602660248201527f4661696c656420746f2073656e642066656520746f2070726564696374696f6e6044820152651037bbb732b960d11b6064820152fd5b61057a565b60405162461bcd60e51b815260048101859052602160248201527f496e636f72726563742045544820616d6f756e7420746f207669657720706f736044820152601d60fa1b6064820152608490fd5b6064836040519062461bcd60e51b825280600483015260248201527f4f776e65722063616e6e6f742076696577207468656972206f776e20706f73746044820152fd5b346100c4576020806003193601126100c45760043580600052600082526040600020916007830154421061093357600c83019060ff8254166108ef57906106e791846106c4600b820154611099565b600a8201549360088301549586956106e26009860154978892611035565b611035565b946004840154600393600386015482116000146108e7571015905b8115610823575060008080806107258b6107208c60058c0154611086565b611066565b97546001600160a01b039890891682821561081a575bf1156107be579097600d019060005b82548110156107d3578461075e8285610fc7565b905490861b1c1689600052600187526040600020816000528752888860406000205480610792575b5050505060010161074a565b6000936107a6859461072086958695611086565b908282156107ca575bf1156107be578a888882610786565b6040513d6000823e3d90fd5b506108fc6107af565b50949392505050604093507f6b476dc7ace1c6944666a87cf148c7a520e4b14d0178c70952ac64ba2193c64194955b805460ff1916600117905583519215158352820152a2005b506108fc61073b565b9198509095509091600e019060005b82548110156108b5576108458184610fc7565b60018060a01b03915490861b1c1688600052600286526040600020816000528652878760406000205480610880575b50505050600101610832565b600093610894859461072086958695611086565b908282156108ac575bf1156107be5789878782610874565b506108fc61089d565b509392915050604093507f6b476dc7ace1c6944666a87cf148c7a520e4b14d0178c70952ac64ba2193c6419495610802565b111590610702565b6064906040519062461bcd60e51b82526004820152601b60248201527f5265776172647320616c726561647920646973747269627574656400000000006044820152fd5b6064906040519062461bcd60e51b82526004820152601a60248201527f50726564696374696f6e20706572696f64206e6f74206f7665720000000000006044820152fd5b346100c45761098536610dbb565b90600052600260205260406000209060018060a01b03166000526020526020604060002054604051908152f35b346100c45760203660031901126100c45760206109d0600435611099565b604051908152f35b60403660031901126100c45760243560043581151582036100c4576109fe341515610f6f565b8060005260209160008352604060002090600014610ad95760089060018060a01b038154163314610ac3575b8260005260018452604060002033600052845260406000205415610ab1575b01610a55348254611035565b9055806000526001825260406000203360005282526040600020610a7a348254611035565b9055604051916001835234908301527f3b1494da55e67aa8e3cf5eda3d5e9bf12524e8201897504247946faa23acd32960403393a3005b610abe33600d8301610ff5565b610a49565b60058101610ad2348254611035565b9055610a2a565b60099060028452604060002033600052845260406000205415610b5f575b01610b03348254611035565b9055806000526002825260406000203360005282526040600020610b28348254611035565b9055604051916000835234908301527f3b1494da55e67aa8e3cf5eda3d5e9bf12524e8201897504247946faa23acd32960403393a3005b610b6c33600e8301610ff5565b610af7565b346100c45760203660031901126100c457600435600090815260208190526040902080546001600160a01b0316610baa60018301610cd6565b91610bb760028201610cd6565b6003820154916004810154600582015460068301546007840154600885015491600986015493600a87015495610c1f60ff600c600b8b01549a01541699610c116040519e8f9e8f6101a09181528160208201520190610d7b565b8d810360408f015290610d7b565b9960608c015260808b015260a08a015260c089015260e088015261010087015261012086015261014085015261016084015215156101808301520390f35b90600182811c92168015610c8d575b6020831014610c7757565b634e487b7160e01b600052602260045260246000fd5b91607f1691610c6c565b6101e0810190811067ffffffffffffffff82111761041a57604052565b90601f8019910116810190811067ffffffffffffffff82111761041a57604052565b90604051918260008254610ce981610c5d565b90818452602094600191600181169081600014610d595750600114610d1a575b505050610d1892500383610cb4565b565b600090815285812095935091905b818310610d41575050610d189350820101388080610d09565b85548884018501529485019487945091830191610d28565b92505050610d1894925060ff191682840152151560051b820101388080610d09565b919082519283825260005b848110610da7575050826000602080949584010152601f8019910116010190565b602081830181015184830182015201610d86565b60409060031901126100c457600435906024356001600160a01b03811681036100c45790565b90815180825260208080930193019160005b828110610e01575050505090565b83516001600160a01b031685529381019392810192600101610df3565b602080825282516001600160a01b0316818301528201516101e060408301819052610f0993929091610e5590610200830190610d7b565b91610e72604085015193601f199485858303016060860152610d7b565b60608501516080840152608085015160a084015260a085015160c084015260c085015160e0840152610ef960e0860151610100908186015286015161012090818601528601516101409081860152860151610160908186015286015161018090818601528601516101a090151581860152860151916101c092868683030184870152610de1565b9401519282850301910152610de1565b90565b67ffffffffffffffff811161041a57601f01601f191660200190565b81601f820112156100c457803590610f3f82610f0c565b92610f4d6040519485610cb4565b828452602083830101116100c457816000926020809301838601378301015290565b15610f7657565b60405162461bcd60e51b815260206004820152602360248201527f5374616b6520616d6f756e74206d75737420626520677265617465722074686160448201526206e20360ec1b6064820152608490fd5b8054821015610fdf5760005260206000200190600090565b634e487b7160e01b600052603260045260246000fd5b80546801000000000000000081101561041a5761101791600182018155610fc7565b60018060a09493941b038084549260031b9316831b921b1916179055565b9190820180921161104257565b634e487b7160e01b600052601160045260246000fd5b604d811161104257600a0a90565b8115611070570490565b634e487b7160e01b600052601260045260246000fd5b8181029291811591840414171561104257565b604080516396834ad360e01b815260048101929092529091906080836024817f00000000000000000000000000000000000000000000000000000000000000006001600160a01b03165afa92831561125f576000936111b0575b506000835160070b13156111785782519201519167ffffffffffffffff166000600384900b81811261113a57505061113463ffffffff610f09939416611058565b90611086565b909350637fffffff1981146111645763ffffffff61115e91610f0994950316611058565b90611066565b634e487b7160e01b84526011600452602484fd5b5162461bcd60e51b81526020600482015260126024820152714e6f6e2d706f73697469766520707269636560701b6044820152606490fd5b6080939193813d608011611257575b816111cc60809383610cb4565b8101031261123b5783519167ffffffffffffffff608084018181118582101761124357865282518060070b810361123f5784526020830151908116810361123b57602084015284820151908160030b8203611238575090606091858401520151606082015291386110f3565b80fd5b5080fd5b8280fd5b634e487b7160e01b83526041600452602483fd5b3d91506111bf565b50513d6000823e3d90fd5b6040519061127782610c97565b60606101c083600080825283602083015283604083015280848301528060808301528060a08301528060c08301528060e083015280610100830152806101208301528061014083015280610160830152610180820152826101a08201520152565b90604051918281549182825260209260208301916000526020600020936000905b82821061130f57505050610d1892500383610cb4565b85546001600160a01b0316845260019586019588955093810193909101906112f9565b61133a61126a565b506000818152602081905260408120546001600160a01b0392919083161561142f5760408161142693600e935280602052206040519361137985610c97565b815416845261138a60018201610cd6565b602085015261139b60028201610cd6565b60408501526003810154606085015260048101546080850152600581015460a0850152600681015460c0850152600781015460e085015260088101546101008501526009810154610120850152600a810154610140850152600b81015461016085015260ff600c82015416151561018085015261141a600d82016112d8565b6101a0850152016112d8565b6101c082015290565b60405162461bcd60e51b8152602060048201526015602482015274125b9d985b1a59081c1c99591a58dd1a5bdb881251605a1b6044820152606490fdfea26469706673582212200637f997e571d860df00563d06a8941fb920cde3724021e016887e39349e406c64736f6c63430008180033",
  "linkReferences": {},
  "deployedLinkReferences": {}
}