{
  "_format": "hh-sol-artifact-1",
  "contractName": "InvestRight",
  "sourceName": "contracts/InvestRight.sol",
  "abi": [
    {
      "inputs": [
        {
          "internalType": "address",
          "name": "pythAddress",
          "type": "address"
        }
      ],
      "stateMutability": "nonpayable",
      "type": "constructor"
    },
    {
      "anonymous": false,
      "inputs": [
        {
          "indexed": true,
          "internalType": "uint256",
          "name": "predictionId",
          "type": "uint256"
        },
        {
          "indexed": true,
          "internalType": "address",
          "name": "owner",
          "type": "address"
        },
        {
          "indexed": false,
          "internalType": "string",
          "name": "coin",
          "type": "string"
        },
        {
          "indexed": false,
          "internalType": "uint256",
          "name": "stakeAmount",
          "type": "uint256"
        }
      ],
      "name": "PredictionCreated",
      "type": "event"
    },
    {
      "anonymous": false,
      "inputs": [
        {
          "indexed": true,
          "internalType": "uint256",
          "name": "predictionId",
          "type": "uint256"
        },
        {
          "indexed": false,
          "internalType": "bool",
          "name": "predictionCorrect",
          "type": "bool"
        },
        {
          "indexed": false,
          "internalType": "uint256",
          "name": "totalReward",
          "type": "uint256"
        }
      ],
      "name": "RewardDistributed",
      "type": "event"
    },
    {
      "anonymous": false,
      "inputs": [
        {
          "indexed": true,
          "internalType": "uint256",
          "name": "predictionId",
          "type": "uint256"
        },
        {
          "indexed": true,
          "internalType": "address",
          "name": "staker",
          "type": "address"
        },
        {
          "indexed": false,
          "internalType": "bool",
          "name": "isPositive",
          "type": "bool"
        },
        {
          "indexed": false,
          "internalType": "uint256",
          "name": "amount",
          "type": "uint256"
        }
      ],
      "name": "StakeAdded",
      "type": "event"
    },
    {
      "inputs": [
        {
          "internalType": "uint256",
          "name": "_id",
          "type": "uint256"
        }
      ],
      "name": "addNegativeStake",
      "outputs": [],
      "stateMutability": "payable",
      "type": "function"
    },
    {
      "inputs": [
        {
          "internalType": "uint256",
          "name": "_id",
          "type": "uint256"
        }
      ],
      "name": "addPositiveStake",
      "outputs": [],
      "stateMutability": "payable",
      "type": "function"
    },
    {
      "inputs": [
        {
          "internalType": "string",
          "name": "_coin",
          "type": "string"
        },
        {
          "internalType": "string",
          "name": "_reasoning",
          "type": "string"
        },
        {
          "internalType": "uint256",
          "name": "_targetPrice",
          "type": "uint256"
        },
        {
          "internalType": "uint256",
          "name": "_viewAmount",
          "type": "uint256"
        },
        {
          "internalType": "uint256",
          "name": "_targetDate",
          "type": "uint256"
        },
        {
          "internalType": "bytes32",
          "name": "_pythPriceId",
          "type": "bytes32"
        }
      ],
      "name": "createPrediction",
      "outputs": [
        {
          "internalType": "uint256",
          "name": "",
          "type": "uint256"
        }
      ],
      "stateMutability": "payable",
      "type": "function"
    },
    {
      "inputs": [
        {
          "internalType": "bytes32",
          "name": "priceId",
          "type": "bytes32"
        }
      ],
      "name": "getCurrentPrice",
      "outputs": [
        {
          "internalType": "uint256",
          "name": "",
          "type": "uint256"
        }
      ],
      "stateMutability": "view",
      "type": "function"
    },
    {
      "inputs": [],
      "name": "getPredictions",
      "outputs": [
        {
          "components": [
            {
              "internalType": "address",
              "name": "owner",
              "type": "address"
            },
            {
              "internalType": "string",
              "name": "coin",
              "type": "string"
            },
            {
              "internalType": "string",
              "name": "reasoning",
              "type": "string"
            },
            {
              "internalType": "uint256",
              "name": "currentPrice",
              "type": "uint256"
            },
            {
              "internalType": "uint256",
              "name": "targetPrice",
              "type": "uint256"
            },
            {
              "internalType": "uint256",
              "name": "stakeAmount",
              "type": "uint256"
            },
            {
              "internalType": "uint256",
              "name": "viewAmount",
              "type": "uint256"
            },
            {
              "internalType": "uint256",
              "name": "targetDate",
              "type": "uint256"
            },
            {
              "internalType": "uint256",
              "name": "totalFeesCollected",
              "type": "uint256"
            },
            {
              "internalType": "uint256",
              "name": "totalPositiveStake",
              "type": "uint256"
            },
            {
              "internalType": "uint256",
              "name": "totalNegativeStake",
              "type": "uint256"
            },
            {
              "internalType": "bytes32",
              "name": "pythPriceId",
              "type": "bytes32"
            },
            {
              "internalType": "bool",
              "name": "isDistributed",
              "type": "bool"
            }
          ],
          "internalType": "struct InvestRight.Prediction[]",
          "name": "",
          "type": "tuple[]"
        }
      ],
      "stateMutability": "view",
      "type": "function"
    },
    {
      "inputs": [
        {
          "internalType": "uint256",
          "name": "_id",
          "type": "uint256"
        }
      ],
      "name": "getTotalFeesCollected",
      "outputs": [
        {
          "internalType": "uint256",
          "name": "",
          "type": "uint256"
        }
      ],
      "stateMutability": "view",
      "type": "function"
    },
    {
      "inputs": [
        {
          "internalType": "uint256",
          "name": "_id",
          "type": "uint256"
        }
      ],
      "name": "getTotalNegativeStake",
      "outputs": [
        {
          "internalType": "uint256",
          "name": "",
          "type": "uint256"
        }
      ],
      "stateMutability": "view",
      "type": "function"
    },
    {
      "inputs": [
        {
          "internalType": "uint256",
          "name": "_id",
          "type": "uint256"
        }
      ],
      "name": "getTotalPositiveStake",
      "outputs": [
        {
          "internalType": "uint256",
          "name": "",
          "type": "uint256"
        }
      ],
      "stateMutability": "view",
      "type": "function"
    },
    {
      "inputs": [
        {
          "internalType": "uint256",
          "name": "_id",
          "type": "uint256"
        }
      ],
      "name": "getTotalStake",
      "outputs": [
        {
          "internalType": "uint256",
          "name": "",
          "type": "uint256"
        }
      ],
      "stateMutability": "view",
      "type": "function"
    },
    {
      "inputs": [
        {
          "internalType": "uint256",
          "name": "",
          "type": "uint256"
        },
        {
          "internalType": "address",
          "name": "",
          "type": "address"
        }
      ],
      "name": "negativeStakes",
      "outputs": [
        {
          "internalType": "uint256",
          "name": "",
          "type": "uint256"
        }
      ],
      "stateMutability": "view",
      "type": "function"
    },
    {
      "inputs": [],
      "name": "numberOfPredictions",
      "outputs": [
        {
          "internalType": "uint256",
          "name": "",
          "type": "uint256"
        }
      ],
      "stateMutability": "view",
      "type": "function"
    },
    {
      "inputs": [
        {
          "internalType": "uint256",
          "name": "",
          "type": "uint256"
        },
        {
          "internalType": "address",
          "name": "",
          "type": "address"
        }
      ],
      "name": "positiveStakes",
      "outputs": [
        {
          "internalType": "uint256",
          "name": "",
          "type": "uint256"
        }
      ],
      "stateMutability": "view",
      "type": "function"
    },
    {
      "inputs": [
        {
          "internalType": "uint256",
          "name": "",
          "type": "uint256"
        }
      ],
      "name": "predictions",
      "outputs": [
        {
          "internalType": "address",
          "name": "owner",
          "type": "address"
        },
        {
          "internalType": "string",
          "name": "coin",
          "type": "string"
        },
        {
          "internalType": "string",
          "name": "reasoning",
          "type": "string"
        },
        {
          "internalType": "uint256",
          "name": "currentPrice",
          "type": "uint256"
        },
        {
          "internalType": "uint256",
          "name": "targetPrice",
          "type": "uint256"
        },
        {
          "internalType": "uint256",
          "name": "stakeAmount",
          "type": "uint256"
        },
        {
          "internalType": "uint256",
          "name": "viewAmount",
          "type": "uint256"
        },
        {
          "internalType": "uint256",
          "name": "targetDate",
          "type": "uint256"
        },
        {
          "internalType": "uint256",
          "name": "totalFeesCollected",
          "type": "uint256"
        },
        {
          "internalType": "uint256",
          "name": "totalPositiveStake",
          "type": "uint256"
        },
        {
          "internalType": "uint256",
          "name": "totalNegativeStake",
          "type": "uint256"
        },
        {
          "internalType": "bytes32",
          "name": "pythPriceId",
          "type": "bytes32"
        },
        {
          "internalType": "bool",
          "name": "isDistributed",
          "type": "bool"
        }
      ],
      "stateMutability": "view",
      "type": "function"
    },
    {
      "inputs": [],
      "name": "pyth",
      "outputs": [
        {
          "internalType": "contract IPyth",
          "name": "",
          "type": "address"
        }
      ],
      "stateMutability": "view",
      "type": "function"
    },
    {
      "inputs": [
        {
          "internalType": "uint256",
          "name": "_id",
          "type": "uint256"
        }
      ],
      "name": "rewardDistribution",
      "outputs": [],
      "stateMutability": "nonpayable",
      "type": "function"
    },
    {
      "inputs": [
        {
          "internalType": "uint256",
          "name": "_id",
          "type": "uint256"
        }
      ],
      "name": "updateCurrentPrice",
      "outputs": [],
      "stateMutability": "nonpayable",
      "type": "function"
    },
    {
      "inputs": [
        {
          "internalType": "uint256",
          "name": "_id",
          "type": "uint256"
        }
      ],
      "name": "viewerFees",
      "outputs": [],
      "stateMutability": "payable",
      "type": "function"
    }
  ],
  "bytecode": "0x60803461007557601f61195f38819003918201601f19168301916001600160401b0383118484101761007a5780849260209460405283398101031261007557516001600160a01b0381169081900361007557600060045560018060a01b031960005416176000556040516118ce90816100918239f35b600080fd5b634e487b7160e01b600052604160045260246000fdfe6080604052600436101561001257600080fd5b60003560e01c80624fbbb0146101265780631478e4f914610121578063161e444e1461011c57806336d465d014610117578063402662801461011257806345367f231461010d5780635e01bc18146101085780637d36f766146101035780637fc6686e146100fe578063888189bc146100f9578063b4b9dc2c146100f4578063c78c3a83146100ef578063c8f5d8a7146100ea578063d2809e8f146100e5578063f7698be6146100e0578063f98d06f0146100db5763fdeb1116146100d657600080fd5b610ded565b610dc4565b610d19565b610cdd565b610cbf565b610bb7565b610a6c565b610a53565b610a1e565b6107a0565b610760565b61071c565b610584565b61045e565b610438565b6103fc565b61035f565b90600182811c9216801561015b575b602083101461014557565b634e487b7160e01b600052602260045260246000fd5b91607f169161013a565b634e487b7160e01b600052604160045260246000fd5b6101a0810190811067ffffffffffffffff82111761019857604052565b610165565b6080810190811067ffffffffffffffff82111761019857604052565b6040810190811067ffffffffffffffff82111761019857604052565b90601f8019910116810190811067ffffffffffffffff82111761019857604052565b9060405191826000825461020a8161012b565b9081845260209460019160018116908160001461027a575060011461023b575b505050610239925003836101d5565b565b600090815285812095935091905b818310610262575050610239935082010138808061022a565b85548884018501529485019487945091830191610249565b9250505061023994925060ff191682840152151560051b82010138808061022a565b60005b8381106102af5750506000910152565b818101518382015260200161029f565b906020916102d88151809281855285808601910161029c565b601f01601f1916010190565b9b989592610318949e9d9a97946101809c999693610326938f6101a09160018060a01b0316815281602082015201906102bf565b8d810360408f0152906102bf565b9c60608c015260808b015260a08a015260c089015260e08801526101008701526101208601526101408501526101608401521515910152565b346103f75760203660031901126103f7576004356000526001602052604060002060018060a01b038154166103f3610399600184016101f7565b926103a6600282016101f7565b906003810154600482015460058301546006840154600785015490600886015492600987015494600a880154966103e6600c600b8b01549a015460ff1690565b996040519d8e9d8e6102e4565b0390f35b600080fd5b346103f75760203660031901126103f75760043561041d6004548210610e24565b60005260016020526020600860406000200154604051908152f35b346103f75760203660031901126103f7576020610456600435611077565b604051908152f35b60203660031901126103f75760043561047a6004548210610e24565b6104853415156112f7565b6000908082526001602052600a604083200180549034820180921161050f5755808252600360209081526040808420336000908152925290206104c934825461135d565b9055604051907f3b1494da55e67aa8e3cf5eda3d5e9bf12524e8201897504247946faa23acd3293392806105093482919060206040840193600081520152565b0390a380f35b610f23565b604051906102398261017b565b67ffffffffffffffff811161019857601f01601f191660200190565b81601f820112156103f75780359061055482610521565b9261056260405194856101d5565b828452602083830101116103f757816000926020809301838601378301015290565b60c03660031901126103f75767ffffffffffffffff6004358181116103f7576105b190369060040161053d565b6024359182116103f7576105cc6103f392369060040161053d565b9060a4356105db3415156112f7565b600b600454936105f26105ed8661136a565b600455565b610630610609866000526001602052604060002090565b80546001600160a01b031916331781559161062786600185016113cf565b600283016113cf565b61063983611077565b60038201556044356004820155606435600682015534600582015560843560078201553460098201550155346106943361067d856000526002602052604060002090565b9060018060a01b0316600052602052604060002090565b55817fc987cddf87b5c39d61521566a8bae8d24269d94ccae4faea08e291aec579f7de604051806106c833953490836114a5565b0390a3604051817f3b1494da55e67aa8e3cf5eda3d5e9bf12524e8201897504247946faa23acd3293392806107093482919060206040840193600181520152565b0390a36040519081529081906020820190565b346103f75760203660031901126103f75760206104566004356114c1565b60409060031901126103f757600435906024356001600160a01b03811681036103f75790565b346103f75760206107976107733661073a565b906000526003835260406000209060018060a01b0316600052602052604060002090565b54604051908152f35b346103f75760203660031901126103f75760048035906107c36004548310610e24565b6107d7826000526001602052604060002090565b6107e760078201544210156114ff565b600c81016108056108006107fc835460ff1690565b1590565b61154b565b610812600b830154611077565b9061081c856114c1565b9160048401549060038501548211600014610a16571015905b811561096057600080808061084e8760058a0154610f7c565b97610882610876610876610868600985019c8d5490610f5c565b93546001600160a01b031690565b6001600160a01b031690565b828215610957575bf1156109025760005b85548110156109105760018060a01b038116846108be8261067d8b6000526002602052604060002090565b54806108d0575b505050600101610893565b600080936108eb6108e383958495610f7c565b8b5490610f5c565b90828215610907575bf115610902573884816108c5565b610ecb565b506108fc6108f4565b50805460ff191660011790557f6b476dc7ace1c6944666a87cf148c7a520e4b14d0178c70952ac64ba2193c64193509091505b6040805191151582526020820192909252a2005b506108fc61088a565b60005b85548110156109de5760018060a01b0381168461098e8261067d8b6000526003602052604060002090565b54806109a0575b505050600101610963565b600080936109be6109b383958495610f7c565b600a8c015490610f5c565b908282156109d5575bf11561090257388481610995565b506108fc6109c7565b507f6b476dc7ace1c6944666a87cf148c7a520e4b14d0178c70952ac64ba2193c641945061094391929350805460ff19166001179055565b111590610835565b346103f75760203660031901126103f757600435600052600160205260406000206003610a4e600b830154611077565b910155005b60203660031901126103f757610a6a6004356115f2565b005b346103f75760203660031901126103f757600435610a8d6004548210610e24565b60005260016020526020600960406000200154604051908152f35b6020808201908083528351809252604092604081018260408560051b8401019601946000925b858410610adf575050505050505090565b909192939495968580600192603f19858203018752610ba68b5191610b37610b276101a0610b1584875160018060a01b03169052565b868601519080888601528401906102bf565b898501518382038b8501526102bf565b92606080820151908301526080808201519083015260a0808201519083015260c0808201519083015260e0808201519083015261010080820151908301526101208082015190830152610140808201519083015261016080820151908301526101808091015191019015159052565b990194019401929594939190610ace565b346103f757600080600319360112610cbc57600454610bd5816116ac565b916040610be560405194856101d5565b828452601f19610bf4846116ac565b0190825b828110610c53575050505b818110610c1857604051806103f38582610aa8565b80610c37610c326001936000526001602052604060002090565b6116f3565b610c4182866116da565b52610c4c81856116da565b5001610c03565b6020908251610c618161017b565b8581526060868491808385015280878501528301528660808301528660a08301528660c08301528660e08301528661010083015286610120830152866101408301528661016083015286610180830152828901015201610bf8565b80fd5b346103f75760003660031901126103f7576020600454604051908152f35b346103f75760203660031901126103f757600435610cfe6004548210610e24565b60005260016020526020600a60406000200154604051908152f35b60203660031901126103f757600435610d356004548210610e24565b610d403415156112f7565b60009080825260016020526009604083200180549034820180921161050f575580825260026020908152604080842033600090815292529020610d8434825461135d565b9055604051907f3b1494da55e67aa8e3cf5eda3d5e9bf12524e8201897504247946faa23acd3293392806105093482919060206040840193600181520152565b346103f75760003660031901126103f7576000546040516001600160a01b039091168152602090f35b346103f7576020610797610e003661073a565b906000526002835260406000209060018060a01b0316600052602052604060002090565b15610e2b57565b60405162461bcd60e51b8152602060048201526015602482015274125b9d985b1a59081c1c99591a58dd1a5bdb881251605a1b6044820152606490fd5b908160809103126103f75760405190610e808261019d565b80518060070b81036103f7578252602081015167ffffffffffffffff811681036103f75760208301526040810151908160030b82036103f75760609160408401520151606082015290565b6040513d6000823e3d90fd5b15610ede57565b60405162461bcd60e51b815260206004820152601f60248201527f4e656761746976652070726963652072657475726e65642062792050797468006044820152606490fd5b634e487b7160e01b600052601160045260246000fd5b60030b637fffffff19811461050f5760000390565b604d811161050f57600a0a90565b8115610f66570490565b634e487b7160e01b600052601260045260246000fd5b8181029291811591840414171561050f57565b60009060033d11610f9c57565b905060046000803e60005160e01c90565b600060443d1061100b57604051600319913d83016004833e815167ffffffffffffffff918282113d60248401111761100e57818401948551938411611016573d8501016020848701011161100e575061100b929101602001906101d5565b90565b949350505050565b50949350505050565b906110326020928281519485920161029c565b0190565b90602061100b9281815201906102bf565b3d15611072573d9061105882610521565b9161106660405193846101d5565b82523d6000602084013e565b606090565b906110b4608061109161087660005460018060a01b031690565b93604094855180809581946396834ad360e01b8352600483019190602083019252565b03915afa600091816112c6575b5061122957826110cf610f8f565b6308c379a0146111d5575b6110e2611047565b600481511015611151575b505162461bcd60e51b815260206004820152603360248201527f50797468206765745072696365556e73616665206661696c65643a20756e6b6e60448201527237bbb7103637bb96b632bb32b61032b93937b960691b6064820152608490fd5b0390fd5b60208101516001600160e01b03191663dc8c6fa560e01b016110ed5761114d916111bf61118460246111b19401516117f4565b8251730283cba34103732ba3bb7b9359032b93937b91d160651b6020820152938491603483015b9061101f565b03601f1981018452836101d5565b5162461bcd60e51b815291829160048301611036565b6111dd610fad565b806111e857506110da565b816111bf6111b19261114d94519384916111ab60208401601c907f50797468206765745072696365556e73616665206661696c65643a200000000081520190565b9091611245600061123b845160070b90565b60070b1215610ed7565b611263611256611256845160070b90565b67ffffffffffffffff1690565b910190611271825160030b90565b6000600382900b126112a957506112a361129e61129561129561100b955160030b90565b63ffffffff1690565b610f4e565b90610f7c565b61100b925061129e6112956112956112c093610f39565b90610f5c565b6112e991925060803d6080116112f0575b6112e181836101d5565b810190610e68565b90386110c1565b503d6112d7565b156112fe57565b60405162461bcd60e51b815260206004820152602360248201527f5374616b6520616d6f756e74206d75737420626520677265617465722074686160448201526206e20360ec1b6064820152608490fd5b603001908160301161050f57565b9190820180921161050f57565b600019811461050f5760010190565b90601f811161138757505050565b6000916000526020600020906020601f850160051c830194106113c5575b601f0160051c01915b8281106113ba57505050565b8181556001016113ae565b90925082906113a5565b919091825167ffffffffffffffff8111610198576113f7816113f1845461012b565b84611379565b602080601f831160011461143a5750819061142b93949560009261142f575b50508160011b916000199060031b1c19161790565b9055565b015190503880611416565b90601f1983169561145085600052602060002090565b926000905b88821061148d57505083600195969710611474575b505050811b019055565b015160001960f88460031b161c1916905538808061146a565b80600185968294968601518155019501930190611455565b9291906114bc6020916040865260408601906102bf565b930152565b6114ce6004548210610e24565b600052600160205260406000206008810154906009810154820180921161050f57600a0154810180911161050f5790565b1561150657565b60405162461bcd60e51b815260206004820152601a60248201527f50726564696374696f6e20706572696f64206e6f74206f7665720000000000006044820152606490fd5b1561155257565b60405162461bcd60e51b815260206004820152601b60248201527f5265776172647320616c726561647920646973747269627574656400000000006044820152606490fd5b1561159e57565b60405162461bcd60e51b815260206004820152602660248201527f4661696c656420746f2073656e642066656520746f2070726564696374696f6e6044820152651037bbb732b960d11b6064820152608490fd5b6115ff6004548210610e24565b600090815260016020526040812080549091906001600160a01b03163381146116a7576006830154908134036116585782809281926008610239970161164683825461135d565b90555af1611652611047565b50611597565b60405162461bcd60e51b815260206004820152602160248201527f496e636f72726563742045544820616d6f756e7420746f207669657720706f736044820152601d60fa1b6064820152608490fd5b505050565b67ffffffffffffffff81116101985760051b60200190565b634e487b7160e01b600052603260045260246000fd5b80518210156116ee5760209160051b010190565b6116c4565b9061023961179a600c611704610514565b85546001600160a01b031681529461171e600182016101f7565b602087015261172f600282016101f7565b60408701526003810154606087015260048101546080870152600581015460a0870152600681015460c0870152600781015460e087015260088101546101008701526009810154610120870152600a810154610140870152600b810154610160870152015460ff1690565b1515610180840152565b906117ae82610521565b6117bb60405191826101d5565b82815280926117cc601f1991610521565b0190602036910137565b801561050f576000190190565b9081518110156116ee570160200190565b801561187a57806000826000935b6118665750611810836117a4565b9291805b61181e5750505090565b600a9061185161184b61183b61183585850661134f565b60ff1690565b60f81b6001600160f81b03191690565b946117d6565b93831a61185e85876117e3565b530480611814565b92611872600a9161136a565b930480611802565b50604051611887816101b9565b60018152600360fc1b60208201529056fea2646970667358221220b4234b13f7a2179a2a1b26daf6c019eb95bbb033b8d94ebfc2b79877f6786cad64736f6c63430008180033",
  "linkReferences": {},
  "deployedLinkReferences": {}
}