{
  "_format": "hh-sol-artifact-1",
  "contractName": "InvestRight",
  "sourceName": "contracts/InvestRight.sol",
  "abi": [
    {
      "inputs": [
        {
          "internalType": "address",
          "name": "pythAddress",
          "type": "address"
        }
      ],
      "stateMutability": "nonpayable",
      "type": "constructor"
    },
    {
      "anonymous": false,
      "inputs": [
        {
          "indexed": true,
          "internalType": "uint256",
          "name": "predictionId",
          "type": "uint256"
        },
        {
          "indexed": true,
          "internalType": "address",
          "name": "owner",
          "type": "address"
        },
        {
          "indexed": false,
          "internalType": "string",
          "name": "coin",
          "type": "string"
        },
        {
          "indexed": false,
          "internalType": "uint256",
          "name": "stakeAmount",
          "type": "uint256"
        }
      ],
      "name": "PredictionCreated",
      "type": "event"
    },
    {
      "anonymous": false,
      "inputs": [
        {
          "indexed": true,
          "internalType": "uint256",
          "name": "predictionId",
          "type": "uint256"
        },
        {
          "indexed": false,
          "internalType": "bool",
          "name": "predictionCorrect",
          "type": "bool"
        },
        {
          "indexed": false,
          "internalType": "uint256",
          "name": "totalReward",
          "type": "uint256"
        }
      ],
      "name": "RewardDistributed",
      "type": "event"
    },
    {
      "anonymous": false,
      "inputs": [
        {
          "indexed": true,
          "internalType": "uint256",
          "name": "predictionId",
          "type": "uint256"
        },
        {
          "indexed": true,
          "internalType": "address",
          "name": "staker",
          "type": "address"
        },
        {
          "indexed": false,
          "internalType": "bool",
          "name": "isPositive",
          "type": "bool"
        },
        {
          "indexed": false,
          "internalType": "uint256",
          "name": "amount",
          "type": "uint256"
        }
      ],
      "name": "StakeAdded",
      "type": "event"
    },
    {
      "inputs": [
        {
          "internalType": "uint256",
          "name": "_id",
          "type": "uint256"
        }
      ],
      "name": "addNegativeStake",
      "outputs": [],
      "stateMutability": "payable",
      "type": "function"
    },
    {
      "inputs": [
        {
          "internalType": "uint256",
          "name": "_id",
          "type": "uint256"
        }
      ],
      "name": "addPositiveStake",
      "outputs": [],
      "stateMutability": "payable",
      "type": "function"
    },
    {
      "inputs": [
        {
          "internalType": "uint256",
          "name": "predictionId",
          "type": "uint256"
        },
        {
          "internalType": "string",
          "name": "_coin",
          "type": "string"
        },
        {
          "internalType": "string",
          "name": "_reasoning",
          "type": "string"
        },
        {
          "internalType": "uint256",
          "name": "_targetPrice",
          "type": "uint256"
        },
        {
          "internalType": "uint256",
          "name": "_viewAmount",
          "type": "uint256"
        },
        {
          "internalType": "uint256",
          "name": "_targetDate",
          "type": "uint256"
        },
        {
          "internalType": "bytes32",
          "name": "_pythPriceId",
          "type": "bytes32"
        }
      ],
      "name": "createPrediction",
      "outputs": [],
      "stateMutability": "payable",
      "type": "function"
    },
    {
      "inputs": [
        {
          "internalType": "bytes32",
          "name": "priceId",
          "type": "bytes32"
        }
      ],
      "name": "getCurrentPrice",
      "outputs": [
        {
          "internalType": "uint256",
          "name": "",
          "type": "uint256"
        }
      ],
      "stateMutability": "view",
      "type": "function"
    },
    {
      "inputs": [],
      "name": "getPredictions",
      "outputs": [
        {
          "components": [
            {
              "internalType": "address",
              "name": "owner",
              "type": "address"
            },
            {
              "internalType": "string",
              "name": "coin",
              "type": "string"
            },
            {
              "internalType": "string",
              "name": "reasoning",
              "type": "string"
            },
            {
              "internalType": "uint256",
              "name": "currentPrice",
              "type": "uint256"
            },
            {
              "internalType": "uint256",
              "name": "targetPrice",
              "type": "uint256"
            },
            {
              "internalType": "uint256",
              "name": "stakeAmount",
              "type": "uint256"
            },
            {
              "internalType": "uint256",
              "name": "viewAmount",
              "type": "uint256"
            },
            {
              "internalType": "uint256",
              "name": "targetDate",
              "type": "uint256"
            },
            {
              "internalType": "uint256",
              "name": "totalFeesCollected",
              "type": "uint256"
            },
            {
              "internalType": "uint256",
              "name": "totalPositiveStake",
              "type": "uint256"
            },
            {
              "internalType": "uint256",
              "name": "totalNegativeStake",
              "type": "uint256"
            },
            {
              "internalType": "bytes32",
              "name": "pythPriceId",
              "type": "bytes32"
            },
            {
              "internalType": "bool",
              "name": "isDistributed",
              "type": "bool"
            }
          ],
          "internalType": "struct InvestRight.Prediction[]",
          "name": "",
          "type": "tuple[]"
        }
      ],
      "stateMutability": "view",
      "type": "function"
    },
    {
      "inputs": [
        {
          "internalType": "uint256",
          "name": "_id",
          "type": "uint256"
        }
      ],
      "name": "getTotalFeesCollected",
      "outputs": [
        {
          "internalType": "uint256",
          "name": "",
          "type": "uint256"
        }
      ],
      "stateMutability": "view",
      "type": "function"
    },
    {
      "inputs": [
        {
          "internalType": "uint256",
          "name": "_id",
          "type": "uint256"
        }
      ],
      "name": "getTotalNegativeStake",
      "outputs": [
        {
          "internalType": "uint256",
          "name": "",
          "type": "uint256"
        }
      ],
      "stateMutability": "view",
      "type": "function"
    },
    {
      "inputs": [
        {
          "internalType": "uint256",
          "name": "_id",
          "type": "uint256"
        }
      ],
      "name": "getTotalPositiveStake",
      "outputs": [
        {
          "internalType": "uint256",
          "name": "",
          "type": "uint256"
        }
      ],
      "stateMutability": "view",
      "type": "function"
    },
    {
      "inputs": [
        {
          "internalType": "uint256",
          "name": "_id",
          "type": "uint256"
        }
      ],
      "name": "getTotalStake",
      "outputs": [
        {
          "internalType": "uint256",
          "name": "",
          "type": "uint256"
        }
      ],
      "stateMutability": "view",
      "type": "function"
    },
    {
      "inputs": [
        {
          "internalType": "uint256",
          "name": "",
          "type": "uint256"
        },
        {
          "internalType": "address",
          "name": "",
          "type": "address"
        }
      ],
      "name": "negativeStakes",
      "outputs": [
        {
          "internalType": "uint256",
          "name": "",
          "type": "uint256"
        }
      ],
      "stateMutability": "view",
      "type": "function"
    },
    {
      "inputs": [],
      "name": "numberOfPredictions",
      "outputs": [
        {
          "internalType": "uint256",
          "name": "",
          "type": "uint256"
        }
      ],
      "stateMutability": "view",
      "type": "function"
    },
    {
      "inputs": [
        {
          "internalType": "uint256",
          "name": "",
          "type": "uint256"
        },
        {
          "internalType": "address",
          "name": "",
          "type": "address"
        }
      ],
      "name": "positiveStakes",
      "outputs": [
        {
          "internalType": "uint256",
          "name": "",
          "type": "uint256"
        }
      ],
      "stateMutability": "view",
      "type": "function"
    },
    {
      "inputs": [
        {
          "internalType": "uint256",
          "name": "",
          "type": "uint256"
        }
      ],
      "name": "predictions",
      "outputs": [
        {
          "internalType": "address",
          "name": "owner",
          "type": "address"
        },
        {
          "internalType": "string",
          "name": "coin",
          "type": "string"
        },
        {
          "internalType": "string",
          "name": "reasoning",
          "type": "string"
        },
        {
          "internalType": "uint256",
          "name": "currentPrice",
          "type": "uint256"
        },
        {
          "internalType": "uint256",
          "name": "targetPrice",
          "type": "uint256"
        },
        {
          "internalType": "uint256",
          "name": "stakeAmount",
          "type": "uint256"
        },
        {
          "internalType": "uint256",
          "name": "viewAmount",
          "type": "uint256"
        },
        {
          "internalType": "uint256",
          "name": "targetDate",
          "type": "uint256"
        },
        {
          "internalType": "uint256",
          "name": "totalFeesCollected",
          "type": "uint256"
        },
        {
          "internalType": "uint256",
          "name": "totalPositiveStake",
          "type": "uint256"
        },
        {
          "internalType": "uint256",
          "name": "totalNegativeStake",
          "type": "uint256"
        },
        {
          "internalType": "bytes32",
          "name": "pythPriceId",
          "type": "bytes32"
        },
        {
          "internalType": "bool",
          "name": "isDistributed",
          "type": "bool"
        }
      ],
      "stateMutability": "view",
      "type": "function"
    },
    {
      "inputs": [],
      "name": "pyth",
      "outputs": [
        {
          "internalType": "contract IPyth",
          "name": "",
          "type": "address"
        }
      ],
      "stateMutability": "view",
      "type": "function"
    },
    {
      "inputs": [
        {
          "internalType": "uint256",
          "name": "_id",
          "type": "uint256"
        }
      ],
      "name": "rewardDistribution",
      "outputs": [],
      "stateMutability": "nonpayable",
      "type": "function"
    },
    {
      "inputs": [
        {
          "internalType": "uint256",
          "name": "_id",
          "type": "uint256"
        }
      ],
      "name": "updateCurrentPrice",
      "outputs": [],
      "stateMutability": "nonpayable",
      "type": "function"
    },
    {
      "inputs": [
        {
          "internalType": "uint256",
          "name": "_id",
          "type": "uint256"
        }
      ],
      "name": "viewerFees",
      "outputs": [],
      "stateMutability": "payable",
      "type": "function"
    }
  ],
  "bytecode": "0x60803461007557601f611b6c38819003918201601f19168301916001600160401b0383118484101761007a5780849260209460405283398101031261007557516001600160a01b0381169081900361007557600060045560018060a01b03196000541617600055604051611adb90816100918239f35b600080fd5b634e487b7160e01b600052604160045260246000fdfe6080604052600436101561001257600080fd5b60003560e01c80624fbbb0146101265780631478e4f914610121578063161e444e1461011c57806336d465d01461011757806345367f23146101125780635e01bc181461010d5780637d36f766146101085780637fc6686e14610103578063888189bc146100fe578063b4b9dc2c146100f9578063c78c3a83146100f4578063c8f5d8a7146100ef578063cc250905146100ea578063d2809e8f146100e5578063f7698be6146100e0578063f98d06f0146100db5763fdeb1116146100d657600080fd5b610fb1565b610f88565b610e8e565b610e3c565b610c9f565b610c11565b610ad6565b610975565b6108c7565b610892565b6105d5565b610595565b610551565b610474565b61044e565b6103fc565b61035f565b90600182811c9216801561015b575b602083101461014557565b634e487b7160e01b600052602260045260246000fd5b91607f169161013a565b634e487b7160e01b600052604160045260246000fd5b6101a0810190811067ffffffffffffffff82111761019857604052565b610165565b6080810190811067ffffffffffffffff82111761019857604052565b6040810190811067ffffffffffffffff82111761019857604052565b90601f8019910116810190811067ffffffffffffffff82111761019857604052565b9060405191826000825461020a8161012b565b9081845260209460019160018116908160001461027a575060011461023b575b505050610239925003836101d5565b565b600090815285812095935091905b818310610262575050610239935082010138808061022a565b85548884018501529485019487945091830191610249565b9250505061023994925060ff191682840152151560051b82010138808061022a565b60005b8381106102af5750506000910152565b818101518382015260200161029f565b906020916102d88151809281855285808601910161029c565b601f01601f1916010190565b9b989592610318949e9d9a97946101809c999693610326938f6101a09160018060a01b0316815281602082015201906102bf565b8d810360408f0152906102bf565b9c60608c015260808b015260a08a015260c089015260e08801526101008701526101208601526101408501526101608401521515910152565b346103f75760203660031901126103f7576004356000526001602052604060002060018060a01b038154166103f3610399600184016101f7565b926103a6600282016101f7565b906003810154600482015460058301546006840154600785015490600886015492600987015494600a880154966103e6600c600b8b01549a015460ff1690565b996040519d8e9d8e6102e4565b0390f35b600080fd5b346103f75760203660031901126103f757600435600081815260016020526040902054610433906001600160a01b03161515610fe8565b60005260016020526020600860406000200154604051908152f35b346103f75760203660031901126103f757602061046c60043561123b565b604051908152f35b60203660031901126103f7576004356000818152600160205260408120549091906104a9906001600160a01b03161515610fe8565b6104b43415156114bb565b8082526001602052600a604083200180549034820180921161054c57556104fb6104e8826000526003602052604060002090565b3360009081526020919091526040902090565b610506348254611521565b9055604051907f3b1494da55e67aa8e3cf5eda3d5e9bf12524e8201897504247946faa23acd3293392806105463482919060206040840193600081520152565b0390a380f35b6110e7565b346103f75760203660031901126103f757602061046c60043561152e565b60409060031901126103f757600435906024356001600160a01b03811681036103f75790565b346103f75760206105cc6105a83661056f565b906000526003835260406000209060018060a01b0316600052602052604060002090565b54604051908152f35b346103f75760203660031901126103f757600480359060018060a01b036106228161061a61060d866000526001602052604060002090565b546001600160a01b031690565b161515610fe8565b610636836000526001602052604060002090565b906106476007830154421015611582565b600c82019061066661066161065d845460ff1690565b1590565b6115ce565b610673600b84015461123b565b9161067d8661152e565b926004850154906003860154821160001461088a571015905b81156107d85760008080806106af8860058b0154611140565b986106e36106d76106d76106c9600985019d8e5490611120565b93546001600160a01b031690565b6001600160a01b031690565b8282156107cf575bf1156107745760005b86548110156107825783811685610730826107198c6000526002602052604060002090565b9060018060a01b0316600052602052604060002090565b5480610742575b5050506001016106f4565b6000809361075d61075583958495611140565b8c5490611120565b90828215610779575bf11561077457388581610737565b61108f565b506108fc610766565b50805460ff191660011790557f6b476dc7ace1c6944666a87cf148c7a520e4b14d0178c70952ac64ba2193c64194509192506107bb9050565b6040805191151582526020820192909252a2005b506108fc6106eb565b60005b86548110156108505783811685610800826107198c6000526003602052604060002090565b5480610812575b5050506001016107db565b6000809361083061082583958495611140565b600a8d015490611120565b90828215610847575bf11561077457388581610807565b506108fc610839565b50909293507f6b476dc7ace1c6944666a87cf148c7a520e4b14d0178c70952ac64ba2193c64194506107bb9150805460ff19166001179055565b111590610696565b346103f75760203660031901126103f7576004356000526001602052604060002060036108c2600b83015461123b565b910155005b60203660031901126103f75760043560008181526001602052604081205490916109729183918291829182916001600160a01b039161091d9161090d908490811661061a565b6000526001602052604060002090565b8054909190610934906001600160a01b03166106d7565b6109408133141561161a565b6008600684015493610953853414611665565b0161095f848254611521565b9055165af161096c61120b565b506116bb565b80f35b346103f75760203660031901126103f7576004356000818152600160205260409020546109ac906001600160a01b03161515610fe8565b60005260016020526020600960406000200154604051908152f35b6020808201908083528351809252604092604081018260408560051b8401019601946000925b8584106109fe575050505050505090565b909192939495968580600192603f19858203018752610ac58b5191610a56610a466101a0610a3484875160018060a01b03169052565b868601519080888601528401906102bf565b898501518382038b8501526102bf565b92606080820151908301526080808201519083015260a0808201519083015260c0808201519083015260e0808201519083015261010080820151908301526101208082015190830152610140808201519083015261016080820151908301526101808091015191019015159052565b9901940194019295949391906109ed565b346103f757600080600319360112610c0e57600454610af481611716565b916040610b0460405194856101d5565b828452601f19610b1384611716565b0190825b828110610ba557505050805b828110610b3857604051806103f386826109c7565b610b526106d761060d836000526001602052604060002090565b610b5f575b600101610b23565b90610b9d600191610b82610b7d856000526001602052604060002090565b61175d565b610b8c8288611744565b52610b978187611744565b5061180e565b919050610b57565b6020908251610bb38161017b565b8581526060868491808385015280878501528301528660808301528660a08301528660c08301528660e08301528661010083015286610120830152866101408301528661016083015286610180830152828901015201610b17565b80fd5b346103f75760003660031901126103f7576020600454604051908152f35b604051906102398261017b565b67ffffffffffffffff811161019857601f01601f191660200190565b81601f820112156103f757803590610c6f82610c3c565b92610c7d60405194856101d5565b828452602083830101116103f757816000926020809301838601378301015290565b60e03660031901126103f75760043567ffffffffffffffff6024358181116103f757610ccf903690600401610c58565b906044359081116103f757610ce8903690600401610c58565b600b60c43591610cf93415156114bb565b6000858152600160205260409020610d24906001600160a01b0390610d1d9061060d565b161561181d565b610d62610d3b866000526001602052604060002090565b80546001600160a01b0319163317815591610d5986600185016118bf565b600283016118bf565b610d6b8361123b565b60038201556064356004820155608435600682015534600582015560a4356007820155346009820155015534610daf33610719856000526002602052604060002090565b55817fc987cddf87b5c39d61521566a8bae8d24269d94ccae4faea08e291aec579f7de60405180610de33395349083611995565b0390a3604051907f3b1494da55e67aa8e3cf5eda3d5e9bf12524e8201897504247946faa23acd329339280610e243482919060206040840193600181520152565b0390a3610e3a610e3560045461180e565b600455565b005b346103f75760203660031901126103f757600435600081815260016020526040902054610e73906001600160a01b03161515610fe8565b60005260016020526020600a60406000200154604051908152f35b60203660031901126103f757600435600081815260016020526040902054610ec0906001600160a01b0390811661061a565b610ecb3415156114bb565b6009610ee1826000526001602052604060002090565b8054610ef5906001600160a01b03166106d7565b3314610f72575b01610f08348254611521565b9055610f2233610719836000526002602052604060002090565b610f2d348254611521565b9055604051907f3b1494da55e67aa8e3cf5eda3d5e9bf12524e8201897504247946faa23acd329339280610f6d3482919060206040840193600181520152565b0390a3005b60058101610f81348254611521565b9055610efc565b346103f75760003660031901126103f7576000546040516001600160a01b039091168152602090f35b346103f75760206105cc610fc43661056f565b906000526002835260406000209060018060a01b0316600052602052604060002090565b15610fef57565b60405162461bcd60e51b8152602060048201526015602482015274125b9d985b1a59081c1c99591a58dd1a5bdb881251605a1b6044820152606490fd5b908160809103126103f757604051906110448261019d565b80518060070b81036103f7578252602081015167ffffffffffffffff811681036103f75760208301526040810151908160030b82036103f75760609160408401520151606082015290565b6040513d6000823e3d90fd5b156110a257565b60405162461bcd60e51b815260206004820152601f60248201527f4e656761746976652070726963652072657475726e65642062792050797468006044820152606490fd5b634e487b7160e01b600052601160045260246000fd5b60030b637fffffff19811461054c5760000390565b604d811161054c57600a0a90565b811561112a570490565b634e487b7160e01b600052601260045260246000fd5b8181029291811591840414171561054c57565b60009060033d1161116057565b905060046000803e60005160e01c90565b600060443d106111cf57604051600319913d83016004833e815167ffffffffffffffff918282113d6024840111176111d2578184019485519384116111da573d850101602084870101116111d257506111cf929101602001906101d5565b90565b949350505050565b50949350505050565b906111f66020928281519485920161029c565b0190565b9060206111cf9281815201906102bf565b3d15611236573d9061121c82610c3c565b9161122a60405193846101d5565b82523d6000602084013e565b606090565b9061127860806112556106d760005460018060a01b031690565b93604094855180809581946396834ad360e01b8352600483019190602083019252565b03915afa6000918161148a575b506113ed5782611293611153565b6308c379a014611399575b6112a661120b565b600481511015611315575b505162461bcd60e51b815260206004820152603360248201527f50797468206765745072696365556e73616665206661696c65643a20756e6b6e60448201527237bbb7103637bb96b632bb32b61032b93937b960691b6064820152608490fd5b0390fd5b60208101516001600160e01b03191663dc8c6fa560e01b016112b157611311916113836113486024611375940151611a01565b8251730283cba34103732ba3bb7b9359032b93937b91d160651b6020820152938491603483015b906111e3565b03601f1981018452836101d5565b5162461bcd60e51b8152918291600483016111fa565b6113a1611171565b806113ac575061129e565b8161138361137592611311945193849161136f60208401601c907f50797468206765745072696365556e73616665206661696c65643a200000000081520190565b909161140960006113ff845160070b90565b60070b121561109b565b61142761141a61141a845160070b90565b67ffffffffffffffff1690565b910190611435825160030b90565b6000600382900b1261146d57506114676114626114596114596111cf955160030b90565b63ffffffff1690565b611112565b90611140565b6111cf9250611462611459611459611484936110fd565b90611120565b6114ad91925060803d6080116114b4575b6114a581836101d5565b81019061102c565b9038611285565b503d61149b565b156114c257565b60405162461bcd60e51b815260206004820152602360248201527f5374616b6520616d6f756e74206d75737420626520677265617465722074686160448201526206e20360ec1b6064820152608490fd5b603001908160301161054c57565b9190820180921161054c57565b600081815260016020526040902054611551906001600160a01b03161515610fe8565b600052600160205260406000206008810154906009810154820180921161054c57600a0154810180911161054c5790565b1561158957565b60405162461bcd60e51b815260206004820152601a60248201527f50726564696374696f6e20706572696f64206e6f74206f7665720000000000006044820152606490fd5b156115d557565b60405162461bcd60e51b815260206004820152601b60248201527f5265776172647320616c726561647920646973747269627574656400000000006044820152606490fd5b1561162157565b606460405162461bcd60e51b815260206004820152602060248201527f4f776e65722063616e6e6f742076696577207468656972206f776e20706f73746044820152fd5b1561166c57565b60405162461bcd60e51b815260206004820152602160248201527f496e636f72726563742045544820616d6f756e7420746f207669657720706f736044820152601d60fa1b6064820152608490fd5b156116c257565b60405162461bcd60e51b815260206004820152602660248201527f4661696c656420746f2073656e642066656520746f2070726564696374696f6e6044820152651037bbb732b960d11b6064820152608490fd5b67ffffffffffffffff81116101985760051b60200190565b634e487b7160e01b600052603260045260246000fd5b80518210156117585760209160051b010190565b61172e565b90610239611804600c61176e610c2f565b85546001600160a01b0316815294611788600182016101f7565b6020870152611799600282016101f7565b60408701526003810154606087015260048101546080870152600581015460a0870152600681015460c0870152600781015460e087015260088101546101008701526009810154610120870152600a810154610140870152600b810154610160870152015460ff1690565b1515610180840152565b600019811461054c5760010190565b1561182457565b60405162461bcd60e51b815260206004820152601c60248201527f50726564696374696f6e20494420616c726561647920696e20757365000000006044820152606490fd5b90601f811161187757505050565b6000916000526020600020906020601f850160051c830194106118b5575b601f0160051c01915b8281106118aa57505050565b81815560010161189e565b9092508290611895565b919091825167ffffffffffffffff8111610198576118e7816118e1845461012b565b84611869565b602080601f831160011461192a5750819061191b93949560009261191f575b50508160011b916000199060031b1c19161790565b9055565b015190503880611906565b90601f1983169561194085600052602060002090565b926000905b88821061197d57505083600195969710611964575b505050811b019055565b015160001960f88460031b161c1916905538808061195a565b80600185968294968601518155019501930190611945565b9291906119ac6020916040865260408601906102bf565b930152565b906119bb82610c3c565b6119c860405191826101d5565b82815280926119d9601f1991610c3c565b0190602036910137565b801561054c576000190190565b908151811015611758570160200190565b8015611a8757806000826000935b611a735750611a1d836119b1565b9291805b611a2b5750505090565b600a90611a5e611a58611a48611a42858506611513565b60ff1690565b60f81b6001600160f81b03191690565b946119e3565b93831a611a6b85876119f0565b530480611a21565b92611a7f600a9161180e565b930480611a0f565b50604051611a94816101b9565b60018152600360fc1b60208201529056fea264697066735822122044785f023329fdb8813aa5b365251c71c2be3c505053ff0aa13116dd1801d91564736f6c63430008180033",
  "linkReferences": {},
  "deployedLinkReferences": {}
}