{
  "_format": "hh-sol-artifact-1",
  "contractName": "InvestRight",
  "sourceName": "contracts/InvestRight.sol",
  "abi": [
    {
      "inputs": [
        {
          "internalType": "address",
          "name": "pythAddress",
          "type": "address"
        }
      ],
      "stateMutability": "nonpayable",
      "type": "constructor"
    },
    {
      "anonymous": false,
      "inputs": [
        {
          "indexed": true,
          "internalType": "uint256",
          "name": "predictionId",
          "type": "uint256"
        },
        {
          "indexed": true,
          "internalType": "address",
          "name": "owner",
          "type": "address"
        },
        {
          "indexed": false,
          "internalType": "string",
          "name": "coin",
          "type": "string"
        },
        {
          "indexed": false,
          "internalType": "uint256",
          "name": "stakeAmount",
          "type": "uint256"
        }
      ],
      "name": "PredictionCreated",
      "type": "event"
    },
    {
      "anonymous": false,
      "inputs": [
        {
          "indexed": true,
          "internalType": "uint256",
          "name": "predictionId",
          "type": "uint256"
        },
        {
          "indexed": false,
          "internalType": "bool",
          "name": "predictionCorrect",
          "type": "bool"
        },
        {
          "indexed": false,
          "internalType": "uint256",
          "name": "totalReward",
          "type": "uint256"
        }
      ],
      "name": "RewardDistributed",
      "type": "event"
    },
    {
      "anonymous": false,
      "inputs": [
        {
          "indexed": true,
          "internalType": "uint256",
          "name": "predictionId",
          "type": "uint256"
        },
        {
          "indexed": true,
          "internalType": "address",
          "name": "staker",
          "type": "address"
        },
        {
          "indexed": false,
          "internalType": "bool",
          "name": "isPositive",
          "type": "bool"
        },
        {
          "indexed": false,
          "internalType": "uint256",
          "name": "amount",
          "type": "uint256"
        }
      ],
      "name": "StakeAdded",
      "type": "event"
    },
    {
      "inputs": [
        {
          "internalType": "uint256",
          "name": "_id",
          "type": "uint256"
        },
        {
          "internalType": "bool",
          "name": "isPositive",
          "type": "bool"
        }
      ],
      "name": "addStake",
      "outputs": [],
      "stateMutability": "payable",
      "type": "function"
    },
    {
      "inputs": [
        {
          "internalType": "uint256",
          "name": "predictionId",
          "type": "uint256"
        },
        {
          "internalType": "string",
          "name": "_coin",
          "type": "string"
        },
        {
          "internalType": "string",
          "name": "_reasoning",
          "type": "string"
        },
        {
          "internalType": "uint256",
          "name": "_targetPrice",
          "type": "uint256"
        },
        {
          "internalType": "uint256",
          "name": "_viewAmount",
          "type": "uint256"
        },
        {
          "internalType": "uint256",
          "name": "_targetDate",
          "type": "uint256"
        },
        {
          "internalType": "bytes32",
          "name": "_pythPriceId",
          "type": "bytes32"
        }
      ],
      "name": "createPrediction",
      "outputs": [],
      "stateMutability": "payable",
      "type": "function"
    },
    {
      "inputs": [
        {
          "internalType": "bytes32",
          "name": "priceId",
          "type": "bytes32"
        }
      ],
      "name": "getCurrentPrice",
      "outputs": [
        {
          "internalType": "uint256",
          "name": "",
          "type": "uint256"
        }
      ],
      "stateMutability": "view",
      "type": "function"
    },
    {
      "inputs": [
        {
          "internalType": "uint256",
          "name": "_id",
          "type": "uint256"
        }
      ],
      "name": "getPredictions",
      "outputs": [
        {
          "components": [
            {
              "internalType": "address",
              "name": "owner",
              "type": "address"
            },
            {
              "internalType": "string",
              "name": "coin",
              "type": "string"
            },
            {
              "internalType": "string",
              "name": "reasoning",
              "type": "string"
            },
            {
              "internalType": "uint256",
              "name": "currentPrice",
              "type": "uint256"
            },
            {
              "internalType": "uint256",
              "name": "targetPrice",
              "type": "uint256"
            },
            {
              "internalType": "uint256",
              "name": "stakeAmount",
              "type": "uint256"
            },
            {
              "internalType": "uint256",
              "name": "viewAmount",
              "type": "uint256"
            },
            {
              "internalType": "uint256",
              "name": "targetDate",
              "type": "uint256"
            },
            {
              "internalType": "uint256",
              "name": "totalPositiveStake",
              "type": "uint256"
            },
            {
              "internalType": "uint256",
              "name": "totalNegativeStake",
              "type": "uint256"
            },
            {
              "internalType": "uint256",
              "name": "totalFeesCollected",
              "type": "uint256"
            },
            {
              "internalType": "bytes32",
              "name": "pythPriceId",
              "type": "bytes32"
            },
            {
              "internalType": "bool",
              "name": "isDistributed",
              "type": "bool"
            },
            {
              "internalType": "address[]",
              "name": "positiveStakers",
              "type": "address[]"
            },
            {
              "internalType": "address[]",
              "name": "negativeStakers",
              "type": "address[]"
            }
          ],
          "internalType": "struct InvestRight.Prediction",
          "name": "",
          "type": "tuple"
        }
      ],
      "stateMutability": "view",
      "type": "function"
    },
    {
      "inputs": [
        {
          "internalType": "uint256",
          "name": "",
          "type": "uint256"
        },
        {
          "internalType": "address",
          "name": "",
          "type": "address"
        }
      ],
      "name": "negativeStakes",
      "outputs": [
        {
          "internalType": "uint256",
          "name": "",
          "type": "uint256"
        }
      ],
      "stateMutability": "view",
      "type": "function"
    },
    {
      "inputs": [
        {
          "internalType": "uint256",
          "name": "",
          "type": "uint256"
        },
        {
          "internalType": "address",
          "name": "",
          "type": "address"
        }
      ],
      "name": "positiveStakes",
      "outputs": [
        {
          "internalType": "uint256",
          "name": "",
          "type": "uint256"
        }
      ],
      "stateMutability": "view",
      "type": "function"
    },
    {
      "inputs": [
        {
          "internalType": "uint256",
          "name": "",
          "type": "uint256"
        }
      ],
      "name": "predictions",
      "outputs": [
        {
          "internalType": "address",
          "name": "owner",
          "type": "address"
        },
        {
          "internalType": "string",
          "name": "coin",
          "type": "string"
        },
        {
          "internalType": "string",
          "name": "reasoning",
          "type": "string"
        },
        {
          "internalType": "uint256",
          "name": "currentPrice",
          "type": "uint256"
        },
        {
          "internalType": "uint256",
          "name": "targetPrice",
          "type": "uint256"
        },
        {
          "internalType": "uint256",
          "name": "stakeAmount",
          "type": "uint256"
        },
        {
          "internalType": "uint256",
          "name": "viewAmount",
          "type": "uint256"
        },
        {
          "internalType": "uint256",
          "name": "targetDate",
          "type": "uint256"
        },
        {
          "internalType": "uint256",
          "name": "totalPositiveStake",
          "type": "uint256"
        },
        {
          "internalType": "uint256",
          "name": "totalNegativeStake",
          "type": "uint256"
        },
        {
          "internalType": "uint256",
          "name": "totalFeesCollected",
          "type": "uint256"
        },
        {
          "internalType": "bytes32",
          "name": "pythPriceId",
          "type": "bytes32"
        },
        {
          "internalType": "bool",
          "name": "isDistributed",
          "type": "bool"
        }
      ],
      "stateMutability": "view",
      "type": "function"
    },
    {
      "inputs": [],
      "name": "pyth",
      "outputs": [
        {
          "internalType": "contract IPyth",
          "name": "",
          "type": "address"
        }
      ],
      "stateMutability": "view",
      "type": "function"
    },
    {
      "inputs": [
        {
          "internalType": "uint256",
          "name": "_id",
          "type": "uint256"
        }
      ],
      "name": "rewardDistribution",
      "outputs": [],
      "stateMutability": "nonpayable",
      "type": "function"
    },
    {
      "inputs": [
        {
          "internalType": "uint256",
          "name": "_id",
          "type": "uint256"
        }
      ],
      "name": "viewerFees",
      "outputs": [
        {
          "components": [
            {
              "internalType": "address",
              "name": "owner",
              "type": "address"
            },
            {
              "internalType": "string",
              "name": "coin",
              "type": "string"
            },
            {
              "internalType": "string",
              "name": "reasoning",
              "type": "string"
            },
            {
              "internalType": "uint256",
              "name": "currentPrice",
              "type": "uint256"
            },
            {
              "internalType": "uint256",
              "name": "targetPrice",
              "type": "uint256"
            },
            {
              "internalType": "uint256",
              "name": "stakeAmount",
              "type": "uint256"
            },
            {
              "internalType": "uint256",
              "name": "viewAmount",
              "type": "uint256"
            },
            {
              "internalType": "uint256",
              "name": "targetDate",
              "type": "uint256"
            },
            {
              "internalType": "uint256",
              "name": "totalPositiveStake",
              "type": "uint256"
            },
            {
              "internalType": "uint256",
              "name": "totalNegativeStake",
              "type": "uint256"
            },
            {
              "internalType": "uint256",
              "name": "totalFeesCollected",
              "type": "uint256"
            },
            {
              "internalType": "bytes32",
              "name": "pythPriceId",
              "type": "bytes32"
            },
            {
              "internalType": "bool",
              "name": "isDistributed",
              "type": "bool"
            },
            {
              "internalType": "address[]",
              "name": "positiveStakers",
              "type": "address[]"
            },
            {
              "internalType": "address[]",
              "name": "negativeStakers",
              "type": "address[]"
            }
          ],
          "internalType": "struct InvestRight.Prediction",
          "name": "",
          "type": "tuple"
        }
      ],
      "stateMutability": "payable",
      "type": "function"
    }
  ],
  "bytecode": "0x60a060405234801561001057600080fd5b5060405161195938038061195983398101604081905261002f91610040565b6001600160a01b0316608052610070565b60006020828403121561005257600080fd5b81516001600160a01b038116811461006957600080fd5b9392505050565b6080516118c7610092600039600081816101d701526105ed01526118c76000f3fe6080604052600436106100905760003560e01c8063888189bc11610059578063888189bc14610172578063cc25090514610192578063f1813d51146101a5578063f98d06f0146101c5578063fdeb11161461021157600080fd5b80624fbbb01461009557806308569d48146100d7578063161e444e146100ec5780635e01bc181461011a5780637d36f76614610152575b600080fd5b3480156100a157600080fd5b506100b56100b03660046111b1565b610249565b6040516100ce9d9c9b9a99989796959493929190611217565b60405180910390f35b6100ea6100e53660046112a3565b6103ca565b005b3480156100f857600080fd5b5061010c6101073660046111b1565b6105ca565b6040519081526020016100ce565b34801561012657600080fd5b5061010c6101353660046112d8565b600260209081526000928352604080842090915290825290205481565b34801561015e57600080fd5b506100ea61016d3660046111b1565b610723565b6101856101803660046111b1565b610a89565b6040516100ce919061134d565b6100ea6101a036600461150b565b610c36565b3480156101b157600080fd5b506101856101c03660046111b1565b610da1565b3480156101d157600080fd5b506101f97f000000000000000000000000000000000000000000000000000000000000000081565b6040516001600160a01b0390911681526020016100ce565b34801561021d57600080fd5b5061010c61022c3660046112d8565b600160209081526000928352604080842090915290825290205481565b600060208190529081526040902080546001820180546001600160a01b0390921692916102759061159d565b80601f01602080910402602001604051908101604052809291908181526020018280546102a19061159d565b80156102ee5780601f106102c3576101008083540402835291602001916102ee565b820191906000526020600020905b8154815290600101906020018083116102d157829003601f168201915b5050505050908060020180546103039061159d565b80601f016020809104026020016040519081016040528092919081815260200182805461032f9061159d565b801561037c5780601f106103515761010080835404028352916020019161037c565b820191906000526020600020905b81548152906001019060200180831161035f57829003601f168201915b50505060038401546004850154600586015460068701546007880154600889015460098a0154600a8b0154600b8c0154600c909c01549a9b979a969950949750929591949093919060ff168d565b600034116103f35760405162461bcd60e51b81526004016103ea906115d8565b60405180910390fd5b600082815260208190526040902081156105035780546001600160a01b0316331415610433573481600501600082825461042d9190611631565b90915550505b600083815260016020908152604080832033845290915290205461047957600d81018054600181018255600091825260209091200180546001600160a01b031916331790555b3481600801600082825461048d9190611631565b90915550506000838152600160209081526040808320338452909152812080543492906104bb908490611631565b90915550506040805160018152346020820152339185917f3b1494da55e67aa8e3cf5eda3d5e9bf12524e8201897504247946faa23acd32991015b60405180910390a3505050565b600083815260026020908152604080832033845290915290205461054957600e81018054600181018255600091825260209091200180546001600160a01b031916331790555b3481600901600082825461055d9190611631565b909155505060008381526002602090815260408083203384529091528120805434929061058b908490611631565b90915550506040805160008152346020820152339185917f3b1494da55e67aa8e3cf5eda3d5e9bf12524e8201897504247946faa23acd32991016104f6565b6040516396834ad360e01b81526004810182905260009081906001600160a01b037f000000000000000000000000000000000000000000000000000000000000000016906396834ad39060240160806040518083038186803b15801561062f57600080fd5b505afa158015610643573d6000803e3d6000fd5b505050506040513d601f19601f820116820180604052508101906106679190611649565b90506000816000015160070b136106b55760405162461bcd60e51b81526020600482015260126024820152714e6f6e2d706f73697469766520707269636560701b60448201526064016103ea565b8051604082015167ffffffffffffffff909116906000600382900b12156106ff576106df816116e0565b6106f09063ffffffff16600a6117ea565b6106fa90836117fd565b61071a565b61071063ffffffff8216600a6117ea565b61071a908361181f565b95945050505050565b600081815260208190526040902060078101544210156107855760405162461bcd60e51b815260206004820152601a60248201527f50726564696374696f6e20706572696f64206e6f74206f76657200000000000060448201526064016103ea565b600c81015460ff16156107da5760405162461bcd60e51b815260206004820152601b60248201527f5265776172647320616c7265616479206469737472696275746564000000000060448201526064016103ea565b60006107e982600b01546105ca565b600a83015460088401546009850154929350909160008161080a8486611631565b6108149190611631565b9050600086600301548760040154111561083657506004860154851015610840565b5060048601548511155b801561096b57600084838960050154610859919061181f565b61086391906117fd565b88546040519192506001600160a01b03169082156108fc029083906000818181858888f1935050505015801561089d573d6000803e3d6000fd5b5060005b600d89015481101561096457600089600d0182815481106108c4576108c461183e565b60009182526020808320909101548d83526001825260408084206001600160a01b0390921680855291909252912054909150801561094f57600088610909888461181f565b61091391906117fd565b6040519091506001600160a01b0384169082156108fc029083906000818181858888f1935050505015801561094c573d6000803e3d6000fd5b50505b5050808061095c90611854565b9150506108a1565b5050610a33565b60005b600e880154811015610a3157600088600e0182815481106109915761099161183e565b60009182526020808320909101548c83526002825260408084206001600160a01b03909216808552919092529120549091508015610a1c576000866109d6878461181f565b6109e091906117fd565b6040519091506001600160a01b0384169082156108fc029083906000818181858888f19350505050158015610a19573d6000803e3d6000fd5b50505b50508080610a2990611854565b91505061096e565b505b600c8701805460ff191660011790556040805182151581526020810184905289917f6b476dc7ace1c6944666a87cf148c7a520e4b14d0178c70952ac64ba2193c641910160405180910390a25050505050505050565b610a91611094565b600082815260208190526040902080546001600160a01b0316331415610af95760405162461bcd60e51b815260206004820181905260248201527f4f776e65722063616e6e6f742076696577207468656972206f776e20706f737460448201526064016103ea565b6006810154348114610b575760405162461bcd60e51b815260206004820152602160248201527f496e636f72726563742045544820616d6f756e7420746f207669657720706f736044820152601d60fa1b60648201526084016103ea565b8082600a016000828254610b6b9190611631565b909155505081546040516000916001600160a01b03169083908381818185875af1925050503d8060008114610bbc576040519150601f19603f3d011682016040523d82523d6000602084013e610bc1565b606091505b5050905080610c215760405162461bcd60e51b815260206004820152602660248201527f4661696c656420746f2073656e642066656520746f2070726564696374696f6e6044820152651037bbb732b960d11b60648201526084016103ea565b6000610c2c86610da1565b9695505050505050565b60003411610c565760405162461bcd60e51b81526004016103ea906115d8565b60008781526020818152604090912080546001600160a01b0319163317815587519091610c8a9160018401918a0190611118565b508551610ca09060028301906020890190611118565b50610caa826105ca565b6003820155600481018590556006810184905534600582018190556007820184905560088201819055600b8201839055600d82018054600181810183556000928352602080842090920180546001600160a01b031916339081179091558c84529082526040808420828552909252918190208390555190918a917fc987cddf87b5c39d61521566a8bae8d24269d94ccae4faea08e291aec579f7de91610d52918c919061186f565b60405180910390a3604080516001815234602082015233918a917f3b1494da55e67aa8e3cf5eda3d5e9bf12524e8201897504247946faa23acd329910160405180910390a35050505050505050565b610da9611094565b6000828152602081905260409020546001600160a01b0316610e055760405162461bcd60e51b8152602060048201526015602482015274125b9d985b1a59081c1c99591a58dd1a5bdb881251605a1b60448201526064016103ea565b6000828152602081815260409182902082516101e0810190935280546001600160a01b031683526001810180549192840191610e409061159d565b80601f0160208091040260200160405190810160405280929190818152602001828054610e6c9061159d565b8015610eb95780601f10610e8e57610100808354040283529160200191610eb9565b820191906000526020600020905b815481529060010190602001808311610e9c57829003601f168201915b50505050508152602001600282018054610ed29061159d565b80601f0160208091040260200160405190810160405280929190818152602001828054610efe9061159d565b8015610f4b5780601f10610f2057610100808354040283529160200191610f4b565b820191906000526020600020905b815481529060010190602001808311610f2e57829003601f168201915b5050505050815260200160038201548152602001600482015481526020016005820154815260200160068201548152602001600782015481526020016008820154815260200160098201548152602001600a8201548152602001600b8201548152602001600c820160009054906101000a900460ff16151515158152602001600d820180548060200260200160405190810160405280929190818152602001828054801561102257602002820191906000526020600020905b81546001600160a01b03168152600190910190602001808311611004575b50505050508152602001600e820180548060200260200160405190810160405280929190818152602001828054801561108457602002820191906000526020600020905b81546001600160a01b03168152600190910190602001808311611066575b5050505050815250509050919050565b604051806101e0016040528060006001600160a01b03168152602001606081526020016060815260200160008152602001600081526020016000815260200160008152602001600081526020016000815260200160008152602001600081526020016000801916815260200160001515815260200160608152602001606081525090565b8280546111249061159d565b90600052602060002090601f016020900481019282611146576000855561118c565b82601f1061115f57805160ff191683800117855561118c565b8280016001018555821561118c579182015b8281111561118c578251825591602001919060010190611171565b5061119892915061119c565b5090565b5b80821115611198576000815560010161119d565b6000602082840312156111c357600080fd5b5035919050565b6000815180845260005b818110156111f0576020818501810151868301820152016111d4565b81811115611202576000602083870101525b50601f01601f19169290920160200192915050565b6001600160a01b038e1681526101a06020820181905260009061123c9083018f6111ca565b828103604084015261124e818f6111ca565b606084019d909d525050608081019990995260a089019790975260c088019590955260e08701939093526101008601919091526101208501526101408401526101608301521515610180909101529392505050565b600080604083850312156112b657600080fd5b82359150602083013580151581146112cd57600080fd5b809150509250929050565b600080604083850312156112eb57600080fd5b8235915060208301356001600160a01b03811681146112cd57600080fd5b600081518084526020808501945080840160005b838110156113425781516001600160a01b03168752958201959082019060010161131d565b509495945050505050565b602081526113676020820183516001600160a01b03169052565b600060208301516101e08060408501526113856102008501836111ca565b91506040850151601f19808685030160608701526113a384836111ca565b935060608701516080870152608087015160a087015260a087015160c087015260c087015160e087015260e087015191506101008281880152808801519250506101208281880152808801519250506101408281880152808801519250506101608281880152808801519250506101808281880152808801519250506101a061142f8188018415159052565b808801519250506101c081878603018188015261144c8584611309565b908801518782039092018488015293509050610c2c8382611309565b634e487b7160e01b600052604160045260246000fd5b600082601f83011261148f57600080fd5b813567ffffffffffffffff808211156114aa576114aa611468565b604051601f8301601f19908116603f011681019082821181831017156114d2576114d2611468565b816040528381528660208588010111156114eb57600080fd5b836020870160208301376000602085830101528094505050505092915050565b600080600080600080600060e0888a03121561152657600080fd5b87359650602088013567ffffffffffffffff8082111561154557600080fd5b6115518b838c0161147e565b975060408a013591508082111561156757600080fd5b506115748a828b0161147e565b979a96995096976060810135975060808101359660a0820135965060c090910135945092505050565b600181811c908216806115b157607f821691505b602082108114156115d257634e487b7160e01b600052602260045260246000fd5b50919050565b60208082526023908201527f5374616b6520616d6f756e74206d75737420626520677265617465722074686160408201526206e20360ec1b606082015260800190565b634e487b7160e01b600052601160045260246000fd5b600082198211156116445761164461161b565b500190565b60006080828403121561165b57600080fd5b6040516080810167ffffffffffffffff828210818311171561167f5761167f611468565b81604052845191508160070b821461169657600080fd5b90825260208401519080821682146116ad57600080fd5b5060208201526040830151600381900b81146116c857600080fd5b60408201526060928301519281019290925250919050565b60008160030b637fffffff198114156116fb576116fb61161b565b60000392915050565b600181815b8085111561173f5781600019048211156117255761172561161b565b8085161561173257918102915b93841c9390800290611709565b509250929050565b600082611756575060016117e4565b81611763575060006117e4565b816001811461177957600281146117835761179f565b60019150506117e4565b60ff8411156117945761179461161b565b50506001821b6117e4565b5060208310610133831016604e8410600b84101617156117c2575081810a6117e4565b6117cc8383611704565b80600019048211156117e0576117e061161b565b0290505b92915050565b60006117f68383611747565b9392505050565b60008261181a57634e487b7160e01b600052601260045260246000fd5b500490565b60008160001904831182151516156118395761183961161b565b500290565b634e487b7160e01b600052603260045260246000fd5b60006000198214156118685761186861161b565b5060010190565b60408152600061188260408301856111ca565b9050826020830152939250505056fea2646970667358221220bb9e3007643b03df00e3de320c379fb51bd2150e1b8b90053414ba98040c85e464736f6c63430008090033",
  "linkReferences": {},
  "deployedLinkReferences": {}
}