{
  "_format": "hh-sol-artifact-1",
  "contractName": "InvestRight",
  "sourceName": "contracts/InvestRight.sol",
  "abi": [
    {
      "inputs": [
        {
          "internalType": "address",
          "name": "pythAddress",
          "type": "address"
        }
      ],
      "stateMutability": "nonpayable",
      "type": "constructor"
    },
    {
      "anonymous": false,
      "inputs": [
        {
          "indexed": true,
          "internalType": "uint256",
          "name": "predictionId",
          "type": "uint256"
        },
        {
          "indexed": true,
          "internalType": "address",
          "name": "owner",
          "type": "address"
        },
        {
          "indexed": false,
          "internalType": "string",
          "name": "coin",
          "type": "string"
        },
        {
          "indexed": false,
          "internalType": "uint256",
          "name": "stakeAmount",
          "type": "uint256"
        }
      ],
      "name": "PredictionCreated",
      "type": "event"
    },
    {
      "anonymous": false,
      "inputs": [
        {
          "indexed": true,
          "internalType": "uint256",
          "name": "predictionId",
          "type": "uint256"
        },
        {
          "indexed": false,
          "internalType": "bool",
          "name": "predictionCorrect",
          "type": "bool"
        },
        {
          "indexed": false,
          "internalType": "uint256",
          "name": "totalReward",
          "type": "uint256"
        }
      ],
      "name": "RewardDistributed",
      "type": "event"
    },
    {
      "anonymous": false,
      "inputs": [
        {
          "indexed": true,
          "internalType": "uint256",
          "name": "predictionId",
          "type": "uint256"
        },
        {
          "indexed": true,
          "internalType": "address",
          "name": "staker",
          "type": "address"
        },
        {
          "indexed": false,
          "internalType": "bool",
          "name": "isPositive",
          "type": "bool"
        },
        {
          "indexed": false,
          "internalType": "uint256",
          "name": "amount",
          "type": "uint256"
        }
      ],
      "name": "StakeAdded",
      "type": "event"
    },
    {
      "inputs": [
        {
          "internalType": "uint256",
          "name": "_id",
          "type": "uint256"
        },
        {
          "internalType": "bool",
          "name": "isPositive",
          "type": "bool"
        }
      ],
      "name": "addStake",
      "outputs": [],
      "stateMutability": "payable",
      "type": "function"
    },
    {
      "inputs": [
        {
          "internalType": "uint256",
          "name": "predictionId",
          "type": "uint256"
        },
        {
          "internalType": "string",
          "name": "_coin",
          "type": "string"
        },
        {
          "internalType": "string",
          "name": "_reasoning",
          "type": "string"
        },
        {
          "internalType": "uint256",
          "name": "_targetPrice",
          "type": "uint256"
        },
        {
          "internalType": "uint256",
          "name": "_viewAmount",
          "type": "uint256"
        },
        {
          "internalType": "uint256",
          "name": "_targetDate",
          "type": "uint256"
        },
        {
          "internalType": "bytes32",
          "name": "_pythPriceId",
          "type": "bytes32"
        }
      ],
      "name": "createPrediction",
      "outputs": [],
      "stateMutability": "payable",
      "type": "function"
    },
    {
      "inputs": [
        {
          "internalType": "bytes32",
          "name": "priceId",
          "type": "bytes32"
        }
      ],
      "name": "getCurrentPrice",
      "outputs": [
        {
          "internalType": "uint256",
          "name": "",
          "type": "uint256"
        }
      ],
      "stateMutability": "view",
      "type": "function"
    },
    {
      "inputs": [
        {
          "internalType": "uint256",
          "name": "_id",
          "type": "uint256"
        }
      ],
      "name": "getPredictions",
      "outputs": [
        {
          "components": [
            {
              "internalType": "address",
              "name": "owner",
              "type": "address"
            },
            {
              "internalType": "string",
              "name": "coin",
              "type": "string"
            },
            {
              "internalType": "string",
              "name": "reasoning",
              "type": "string"
            },
            {
              "internalType": "uint256",
              "name": "currentPrice",
              "type": "uint256"
            },
            {
              "internalType": "uint256",
              "name": "targetPrice",
              "type": "uint256"
            },
            {
              "internalType": "uint256",
              "name": "stakeAmount",
              "type": "uint256"
            },
            {
              "internalType": "uint256",
              "name": "viewAmount",
              "type": "uint256"
            },
            {
              "internalType": "uint256",
              "name": "targetDate",
              "type": "uint256"
            },
            {
              "internalType": "uint256",
              "name": "totalPositiveStake",
              "type": "uint256"
            },
            {
              "internalType": "uint256",
              "name": "totalNegativeStake",
              "type": "uint256"
            },
            {
              "internalType": "uint256",
              "name": "totalFeesCollected",
              "type": "uint256"
            },
            {
              "internalType": "bytes32",
              "name": "pythPriceId",
              "type": "bytes32"
            },
            {
              "internalType": "bool",
              "name": "isDistributed",
              "type": "bool"
            },
            {
              "internalType": "address[]",
              "name": "positiveStakers",
              "type": "address[]"
            },
            {
              "internalType": "address[]",
              "name": "negativeStakers",
              "type": "address[]"
            }
          ],
          "internalType": "struct InvestRight.Prediction",
          "name": "",
          "type": "tuple"
        }
      ],
      "stateMutability": "view",
      "type": "function"
    },
    {
      "inputs": [
        {
          "internalType": "uint256",
          "name": "",
          "type": "uint256"
        },
        {
          "internalType": "address",
          "name": "",
          "type": "address"
        }
      ],
      "name": "hasPaidViewFee",
      "outputs": [
        {
          "internalType": "bool",
          "name": "",
          "type": "bool"
        }
      ],
      "stateMutability": "view",
      "type": "function"
    },
    {
      "inputs": [
        {
          "internalType": "uint256",
          "name": "_predictionId",
          "type": "uint256"
        },
        {
          "internalType": "address",
          "name": "_user",
          "type": "address"
        }
      ],
      "name": "isWhitelisted",
      "outputs": [
        {
          "internalType": "bool",
          "name": "",
          "type": "bool"
        }
      ],
      "stateMutability": "view",
      "type": "function"
    },
    {
      "inputs": [
        {
          "internalType": "uint256",
          "name": "",
          "type": "uint256"
        },
        {
          "internalType": "address",
          "name": "",
          "type": "address"
        }
      ],
      "name": "negativeStakes",
      "outputs": [
        {
          "internalType": "uint256",
          "name": "",
          "type": "uint256"
        }
      ],
      "stateMutability": "view",
      "type": "function"
    },
    {
      "inputs": [
        {
          "internalType": "uint256",
          "name": "",
          "type": "uint256"
        },
        {
          "internalType": "address",
          "name": "",
          "type": "address"
        }
      ],
      "name": "positiveStakes",
      "outputs": [
        {
          "internalType": "uint256",
          "name": "",
          "type": "uint256"
        }
      ],
      "stateMutability": "view",
      "type": "function"
    },
    {
      "inputs": [
        {
          "internalType": "uint256",
          "name": "",
          "type": "uint256"
        }
      ],
      "name": "predictions",
      "outputs": [
        {
          "internalType": "address",
          "name": "owner",
          "type": "address"
        },
        {
          "internalType": "string",
          "name": "coin",
          "type": "string"
        },
        {
          "internalType": "string",
          "name": "reasoning",
          "type": "string"
        },
        {
          "internalType": "uint256",
          "name": "currentPrice",
          "type": "uint256"
        },
        {
          "internalType": "uint256",
          "name": "targetPrice",
          "type": "uint256"
        },
        {
          "internalType": "uint256",
          "name": "stakeAmount",
          "type": "uint256"
        },
        {
          "internalType": "uint256",
          "name": "viewAmount",
          "type": "uint256"
        },
        {
          "internalType": "uint256",
          "name": "targetDate",
          "type": "uint256"
        },
        {
          "internalType": "uint256",
          "name": "totalPositiveStake",
          "type": "uint256"
        },
        {
          "internalType": "uint256",
          "name": "totalNegativeStake",
          "type": "uint256"
        },
        {
          "internalType": "uint256",
          "name": "totalFeesCollected",
          "type": "uint256"
        },
        {
          "internalType": "bytes32",
          "name": "pythPriceId",
          "type": "bytes32"
        },
        {
          "internalType": "bool",
          "name": "isDistributed",
          "type": "bool"
        }
      ],
      "stateMutability": "view",
      "type": "function"
    },
    {
      "inputs": [],
      "name": "pyth",
      "outputs": [
        {
          "internalType": "contract IPyth",
          "name": "",
          "type": "address"
        }
      ],
      "stateMutability": "view",
      "type": "function"
    },
    {
      "inputs": [
        {
          "internalType": "uint256",
          "name": "_id",
          "type": "uint256"
        }
      ],
      "name": "rewardDistribution",
      "outputs": [],
      "stateMutability": "nonpayable",
      "type": "function"
    },
    {
      "inputs": [
        {
          "internalType": "uint256",
          "name": "_id",
          "type": "uint256"
        }
      ],
      "name": "viewerFees",
      "outputs": [
        {
          "components": [
            {
              "internalType": "address",
              "name": "owner",
              "type": "address"
            },
            {
              "internalType": "string",
              "name": "coin",
              "type": "string"
            },
            {
              "internalType": "string",
              "name": "reasoning",
              "type": "string"
            },
            {
              "internalType": "uint256",
              "name": "currentPrice",
              "type": "uint256"
            },
            {
              "internalType": "uint256",
              "name": "targetPrice",
              "type": "uint256"
            },
            {
              "internalType": "uint256",
              "name": "stakeAmount",
              "type": "uint256"
            },
            {
              "internalType": "uint256",
              "name": "viewAmount",
              "type": "uint256"
            },
            {
              "internalType": "uint256",
              "name": "targetDate",
              "type": "uint256"
            },
            {
              "internalType": "uint256",
              "name": "totalPositiveStake",
              "type": "uint256"
            },
            {
              "internalType": "uint256",
              "name": "totalNegativeStake",
              "type": "uint256"
            },
            {
              "internalType": "uint256",
              "name": "totalFeesCollected",
              "type": "uint256"
            },
            {
              "internalType": "bytes32",
              "name": "pythPriceId",
              "type": "bytes32"
            },
            {
              "internalType": "bool",
              "name": "isDistributed",
              "type": "bool"
            },
            {
              "internalType": "address[]",
              "name": "positiveStakers",
              "type": "address[]"
            },
            {
              "internalType": "address[]",
              "name": "negativeStakers",
              "type": "address[]"
            }
          ],
          "internalType": "struct InvestRight.Prediction",
          "name": "",
          "type": "tuple"
        }
      ],
      "stateMutability": "payable",
      "type": "function"
    }
  ],
  "bytecode": "0x60a03461007257601f61166c38819003918201601f19168301916001600160401b038311848410176100775780849260209460405283398101031261007257516001600160a01b03811690819003610072576080526040516115de908161008e823960805181818160f501526111f60152f35b600080fd5b634e487b7160e01b600052604160045260246000fdfe6080604052600436101561001257600080fd5b60003560e01c80624fbbb014610cad57806308569d4814610b14578063161e444e14610aee5780631aed95a114610a735780635e01bc1814610ab35780637d22c35c14610a735780637d36f76614610771578063888189bc14610530578063cc25090514610153578063f1813d5114610124578063f98d06f0146100df5763fdeb11161461009f57600080fd5b346100da576100ad36610ef7565b90600052600160205260406000209060018060a01b03166000526020526020604060002054604051908152f35b600080fd5b346100da5760003660031901126100da576040517f00000000000000000000000000000000000000000000000000000000000000006001600160a01b03168152602090f35b346100da5760203660031901126100da5761014f61014360043561146e565b60405191829182610f5a565b0390f35b60e03660031901126100da5760243567ffffffffffffffff81116100da5761017f903690600401611064565b60443567ffffffffffffffff81116100da5761019f903690600401611064565b6101aa3415156110ab565b6004356000526000602052604060002090336bffffffffffffffffffffffff60a01b835416178255825167ffffffffffffffff8111610457576101f06001840154610d99565b601f81116104e5575b50806020601f82116001146104785760009161046d575b508160011b916000199060031b1c19161760018301555b80519067ffffffffffffffff8211610457576102466002840154610d99565b601f811161040c575b50602090601f831160011461039a576102cb9392916000918361038f575b50508160011b916000199060031b1c19161760028201555b61029060c4356111d5565b60038201556064356004820155608435600682015534600582015560a435600782015534600882015560c435600b820155600d339101611131565b60043560005260016020526040600020336000526020523460406000205560043560005260036020526040600020336000526020526040600020600160ff1982541617905561032560405191604083526040830190610eb7565b3460208301527fc987cddf87b5c39d61521566a8bae8d24269d94ccae4faea08e291aec579f7de339280600435930390a36040516001815234602082015233907f3b1494da55e67aa8e3cf5eda3d5e9bf12524e8201897504247946faa23acd329604060043592a3005b01519050858061026d565b90601f198316916002850160005260206000209260005b8181106103f457509160019391856102cb979694106103db575b505050811b016002820155610285565b015160001960f88460031b161c191690558580806103cb565b929360206001819287860151815501950193016103b1565b600284016000526020600020601f840160051c8101916020851061044d575b601f0160051c01905b818110610441575061024f565b60008155600101610434565b909150819061042b565b634e487b7160e01b600052604160045260246000fd5b905084015185610210565b91506001840160005260206000206000925b601f19831684106104cd576001935082601f198116106104b4575b5050811b016001830155610227565b86015160001960f88460031b161c1916905585806104a5565b8681015182556020938401936001909201910161048a565b600184016000526020600020601f830160051c81019160208410610526575b601f0160051c01905b81811061051a57506101f9565b6000815560010161050d565b9091508190610504565b6020806003193601126100da57600435906105496113a6565b5060008281528082526040902080546001600160a01b031633811461072e578360005260038352604060002033600052835260ff60406000205416156000146106b75760068201549182340361066857600080938193600a8394016105af838254611171565b90555af13d15610663573d6105c381611048565b906105d16040519283610df0565b81526000833d92013e5b1561061057816101439161014f936000526003815260406000209033600052526040600020600160ff1982541617905561146e565b6084906040519062461bcd60e51b82526004820152602660248201527f4661696c656420746f2073656e642066656520746f2070726564696374696f6e6044820152651037bbb732b960d11b6064820152fd5b6105db565b60405162461bcd60e51b815260048101859052602160248201527f496e636f72726563742045544820616d6f756e7420746f207669657720706f736044820152601d60fa1b6064820152608490fd5b5050346106cb575061014361014f9161146e565b6084906040519062461bcd60e51b82526004820152603660248201527f596f75206861766520616c72656164792070616964207468652076696577206660448201527532b2903337b9103a3434b990383932b234b1ba34b7b760511b6064820152fd5b6064836040519062461bcd60e51b825280600483015260248201527f4f776e65722063616e6e6f742076696577207468656972206f776e20706f73746044820152fd5b346100da576020806003193601126100da57600435806000526000825260406000209160078301544210610a2f57600c83019060ff8254166109eb57906107e391846107c0600b8201546111d5565b600a8201549360088301549586956107de6009860154978892611171565b611171565b946004840154600393600386015482116000146109e3571015905b811561091f575060008080806108218b61081c8c60058c01546111c2565b6111a2565b97546001600160a01b0398908916828215610916575bf1156108ba579097600d019060005b82548110156108cf578461085a8285611103565b905490861b1c168960005260018752604060002081600052875288886040600020548061088e575b50505050600101610846565b6000936108a2859461081c869586956111c2565b908282156108c6575bf1156108ba578a888882610882565b6040513d6000823e3d90fd5b506108fc6108ab565b50949392505050604093507f6b476dc7ace1c6944666a87cf148c7a520e4b14d0178c70952ac64ba2193c64194955b805460ff1916600117905583519215158352820152a2005b506108fc610837565b9198509095509091600e019060005b82548110156109b1576109418184611103565b60018060a01b03915490861b1c168860005260028652604060002081600052865287876040600020548061097c575b5050505060010161092e565b600093610990859461081c869586956111c2565b908282156109a8575bf1156108ba5789878782610970565b506108fc610999565b509392915050604093507f6b476dc7ace1c6944666a87cf148c7a520e4b14d0178c70952ac64ba2193c64194956108fe565b1115906107fe565b6064906040519062461bcd60e51b82526004820152601b60248201527f5265776172647320616c726561647920646973747269627574656400000000006044820152fd5b6064906040519062461bcd60e51b82526004820152601a60248201527f50726564696374696f6e20706572696f64206e6f74206f7665720000000000006044820152fd5b346100da57610a8136610ef7565b90600052600360205260406000209060018060a01b0316600052602052602060ff604060002054166040519015158152f35b346100da57610ac136610ef7565b90600052600260205260406000209060018060a01b03166000526020526020604060002054604051908152f35b346100da5760203660031901126100da576020610b0c6004356111d5565b604051908152f35b60403660031901126100da5760243560043581151582036100da57610b3a3415156110ab565b8060005260209160008352604060002090600014610c155760089060018060a01b038154163314610bff575b8260005260018452604060002033600052845260406000205415610bed575b01610b91348254611171565b9055806000526001825260406000203360005282526040600020610bb6348254611171565b9055604051916001835234908301527f3b1494da55e67aa8e3cf5eda3d5e9bf12524e8201897504247946faa23acd32960403393a3005b610bfa33600d8301611131565b610b85565b60058101610c0e348254611171565b9055610b66565b60099060028452604060002033600052845260406000205415610c9b575b01610c3f348254611171565b9055806000526002825260406000203360005282526040600020610c64348254611171565b9055604051916000835234908301527f3b1494da55e67aa8e3cf5eda3d5e9bf12524e8201897504247946faa23acd32960403393a3005b610ca833600e8301611131565b610c33565b346100da5760203660031901126100da57600435600090815260208190526040902080546001600160a01b0316610ce660018301610e12565b91610cf360028201610e12565b6003820154916004810154600582015460068301546007840154600885015491600986015493600a87015495610d5b60ff600c600b8b01549a01541699610d4d6040519e8f9e8f6101a09181528160208201520190610eb7565b8d810360408f015290610eb7565b9960608c015260808b015260a08a015260c089015260e088015261010087015261012086015261014085015261016084015215156101808301520390f35b90600182811c92168015610dc9575b6020831014610db357565b634e487b7160e01b600052602260045260246000fd5b91607f1691610da8565b6101e0810190811067ffffffffffffffff82111761045757604052565b90601f8019910116810190811067ffffffffffffffff82111761045757604052565b90604051918260008254610e2581610d99565b90818452602094600191600181169081600014610e955750600114610e56575b505050610e5492500383610df0565b565b600090815285812095935091905b818310610e7d575050610e549350820101388080610e45565b85548884018501529485019487945091830191610e64565b92505050610e5494925060ff191682840152151560051b820101388080610e45565b919082519283825260005b848110610ee3575050826000602080949584010152601f8019910116010190565b602081830181015184830182015201610ec2565b60409060031901126100da57600435906024356001600160a01b03811681036100da5790565b90815180825260208080930193019160005b828110610f3d575050505090565b83516001600160a01b031685529381019392810192600101610f2f565b602080825282516001600160a01b0316818301528201516101e06040830181905261104593929091610f9190610200830190610eb7565b91610fae604085015193601f199485858303016060860152610eb7565b60608501516080840152608085015160a084015260a085015160c084015260c085015160e084015261103560e0860151610100908186015286015161012090818601528601516101409081860152860151610160908186015286015161018090818601528601516101a090151581860152860151916101c092868683030184870152610f1d565b9401519282850301910152610f1d565b90565b67ffffffffffffffff811161045757601f01601f191660200190565b81601f820112156100da5780359061107b82611048565b926110896040519485610df0565b828452602083830101116100da57816000926020809301838601378301015290565b156110b257565b60405162461bcd60e51b815260206004820152602360248201527f5374616b6520616d6f756e74206d75737420626520677265617465722074686160448201526206e20360ec1b6064820152608490fd5b805482101561111b5760005260206000200190600090565b634e487b7160e01b600052603260045260246000fd5b8054680100000000000000008110156104575761115391600182018155611103565b60018060a09493941b038084549260031b9316831b921b1916179055565b9190820180921161117e57565b634e487b7160e01b600052601160045260246000fd5b604d811161117e57600a0a90565b81156111ac570490565b634e487b7160e01b600052601260045260246000fd5b8181029291811591840414171561117e57565b604080516396834ad360e01b815260048101929092529091906080836024817f00000000000000000000000000000000000000000000000000000000000000006001600160a01b03165afa92831561139b576000936112ec575b506000835160070b13156112b45782519201519167ffffffffffffffff166000600384900b81811261127657505061127063ffffffff611045939416611194565b906111c2565b909350637fffffff1981146112a05763ffffffff61129a9161104594950316611194565b906111a2565b634e487b7160e01b84526011600452602484fd5b5162461bcd60e51b81526020600482015260126024820152714e6f6e2d706f73697469766520707269636560701b6044820152606490fd5b6080939193813d608011611393575b8161130860809383610df0565b810103126113775783519167ffffffffffffffff608084018181118582101761137f57865282518060070b810361137b5784526020830151908116810361137757602084015284820151908160030b82036113745750906060918584015201516060820152913861122f565b80fd5b5080fd5b8280fd5b634e487b7160e01b83526041600452602483fd5b3d91506112fb565b50513d6000823e3d90fd5b604051906113b382610dd3565b60606101c083600080825283602083015283604083015280848301528060808301528060a08301528060c08301528060e083015280610100830152806101208301528061014083015280610160830152610180820152826101a08201520152565b90604051918281549182825260209260208301916000526020600020936000905b82821061144b57505050610e5492500383610df0565b85546001600160a01b031684526001958601958895509381019390910190611435565b6114766113a6565b506000818152602081905260408120546001600160a01b0392919083161561156b5760408161156293600e93528060205220604051936114b585610dd3565b81541684526114c660018201610e12565b60208501526114d760028201610e12565b60408501526003810154606085015260048101546080850152600581015460a0850152600681015460c0850152600781015460e085015260088101546101008501526009810154610120850152600a810154610140850152600b81015461016085015260ff600c820154161515610180850152611556600d8201611414565b6101a085015201611414565b6101c082015290565b60405162461bcd60e51b8152602060048201526015602482015274125b9d985b1a59081c1c99591a58dd1a5bdb881251605a1b6044820152606490fdfea2646970667358221220f30c59685f18365a46efd8f4feb506ca5fb0cab1532147149f6075bb52ac1ec764736f6c63430008180033",
  "linkReferences": {},
  "deployedLinkReferences": {}
}